:100000000C941D030C94E4270C9455030C94550395
:100010000C9455030C9455030C9455030C94550300
:100020000C9455030C9455030C9421260C94F9263A
:100030000C94D6250C9455030C9455030C9455033D
:100040000C9455030C9455030C9455030C945503D0
:100050000C9455030C94FD250C9455030C945503F6
:100060000C9455030C9455030C9455030C945503B0
:100070000C9455030C9455030C9455030C945503A0
:100080000C9455030C9455030C9455030C94550390
:100090000C9455030C9455030C9455030C94550380
:1000A0000C9455030C9455030C94550305010980D9
:1000B000A101850319012AB700150126B700950192
:1000C00075108100C0050C0901A101850419012AE0
:1000D000A002150126A002950175108100C005013E
:1000E0000906A101050719E029E715002501950872
:1000F000750181029501750881010507190029FF25
:10010000150026FF009506750881000508190129CC
:1001100005950575019102950175039101C00902CC
:100120003B00020100A0FA090400000103010100E4
:100130000921110100012240000705810308000187
:10014000090401000103000000092111010001223E
:1001500032000705820320000112010002000000A6
:100160000810CB5722000201020001220351007542
:100170000065006600720065006E00630079002073
:10018000005200650076002E002000320000000EB4
:10019000034B0065006500620069006F0000000409
:1001A0000309040102030C0D0E0F00070605040BE2
:1001B0000A09080001010101010101010102020215
:1001C0000202020202020303030303030303040403
:1001D00004040404040505050505060606060607CD
:1001E0000707070708080808090909090A0A0A0B86
:1001F0000B0B0C0C0C0D0D0D0E0E0E0F0F0F101027
:1002000011111112121313141415151616171718AD
:100210001819191A1A1B1B1C1D1D1E1E1F20202118
:100220002222232424252626272829292A2B2C2D5F
:100230002D2E2F30313232333435363738393A3B80
:100240003C3D3E3F404142434445464748494A4C75
:100250004D4E4F50515354555658595A5B5D5E5F41
:10026000616264656668696B6C6D6F7072737577D7
:10027000787A7B7D7E8082838587888A8C8E8F9139
:10028000939596989A9C9EA0A2A3A5A7A9ABADAF63
:10029000B1B3B5B7BABCBEC0C2C4C6C9CBCDCFD14D
:1002A000D4D6D8DBDDDFE2E4E7E9EBEEF0F3F5F8F6
:1002B000FAFDFF0100290035001E001F002000216B
:1002C00000220023003A003B002B0014001A000813
:1002D000001500170000003C003D00B85D0400164A
:1002E00000070009000A0000003E003F00E1000096
:1002F000001D001B00060019000500C35CC45CE083
:1003000000E2000151E3000000015100002400253B
:1003100000260027002D002E004C002A00AE001CF5
:100320000018000C00120013002F00300031004DA7
:10033000000B000D000E000F0033003400000028F9
:10034000004B00110010003600370038000000E5B7
:100350000052004E0001002C000151E400E70000B3
:1003600000500051004F000100010001003A003B25
:10037000003C003D003E003F0001000100B35D0174
:100380000001000100010001000000010001000265
:100390005101000100B15DB25D01000000010001EA
:1003A000000100000001000100010001000100C087
:1003B0005CC15C01000100010001000000010000BF
:1003C000004000410042004300440045004C004C06
:1003D00000010001000100520001000100B45D01B4
:1003E00000010001000100500051004F0001000118
:1003F0000000000100010001000100B55DB65D01D3
:100400000000000100010001000100025101000193
:1004100000010000000100010001000100010001D5
:1004200000010001000100010001000100010001C4
:1004300000010001000100010001000100000001B5
:1004400000010001000100010001000100010000A5
:100450000001000100010000000100010001000195
:100460000001000100010001000100010001000085
:100470000001000000010001000100010001000175
:1004800000010001000100010001004B000100011A
:100490000001000100010001000100AF5D4E00B04D
:1004A0005D010001000000010001000100010001E8
:1004B0000001000100000001000100010001000135
:1004C0000001000100010000000100010001000125
:1004D00000290035001E001F0020002100220023FB
:1004E000003A003B002B0014001A0008001500170A
:1004F0000000003C003D00B85D0400160007000944
:10050000000A0000003E003F00E10000001D001B4B
:1005100000060019000500B75DC45CE000E20001C0
:1005200051E30000002C00000024002500260027D5
:10053000002D002E004C002A00AE001C0018000CFC
:1005400000120013002F00300031004D000B000D91
:10055000000E000F0033003400000028004B001193
:100560000010003600370038000000E50052004E51
:100570000001002C000151E400E700000050005190
:10058000004F00000000000000000000000000001C
:10059000000000000000000000000000000000005B
:1005A000000000000000007E0F00D4FFFFFFC70026
:1005B00000007800000000000000002A2B28000046
:1005C0000000000000000000000000000000290002
:1005D0000000002C1E3420212224342627252E360C
:1005E0002D3738271E1F202122232425263333367A
:1005F0002E37381F0405060708090A0B0C0D0E0FCD
:10060000101112131415161718191A1B1C1D2F314F
:1006100030232D350405060708090A0B0C0D0E0FB3
:10062000101112131415161718191A1B1C1D2F312F
:1006300030354C2D205B205D200011241FBECFEFF4
:10064000DAE0DEBFCDBF04B603FE18C080914B03D5
:1006500090914C03A0914D03B0914E038730904B85
:10066000A740B04B59F410924B0310924C031092D8
:100670004D0310924E03E0E0F8E3099511E0A0E08D
:10068000B1E0E0ECF4E502C005900D92A03BB107AB
:10069000D9F723E0A0EBB1E001C01D92AB34B20763
:1006A000E1F70E9402220C941B2A0C9400000F9385
:1006B0001F93462F572FBC01CB01AA27BB270097BA
:1006C000A105B105E9F1AC01BD0180E1052F162FAF
:1006D000272F3327011511052105310519F0885FF2
:1006E000B901A8018A019B01F4E036952795179579
:1006F0000795FA95D1F7011511052105310519F076
:100700008C5FB901A8018A019B01E2E0369527952B
:1007100017950795EA95D1F70115110521053105C2
:1007200019F08E5FB901A8017695679557954795A1
:10073000452B462B472B09F08F5F1F910F91089592
:1007400080E0C4CF90915B01992329F081FD02C024
:100750002E9A08952E980895292F9A30A0F5893061
:1007600090F590E039E0239F800D911D1124282FF2
:10077000277041E001C0440F2A95EAF723E09695DF
:1007800087952A95E1F725E0289FF001299FF00D34
:100790001124E554FD4F20E030E070E05191DF017D
:1007A0001197CB01022E02C0969587950A94E2F725
:1007B000817081958527842385278C932F5F3F4FF8
:1007C0002530310559F70895292F9A3080F5893061
:1007D00070F590E039E0239F800D911D1124682F62
:1007E000677023E0969587952A95E1F725E0289F85
:1007F000F001299FF00D1124E554FD4F40E050E039
:1008000080E0219130E0062E02C0369527950A94AB
:10081000E2F721703327042E01C0220F0A94EAF771
:10082000822B4F5F5F4F4530510559F7089580E0A7
:1008300008958091140390911303981301C00895B3
:100840008F5F8770FACFE4EBF1E09191891303C0D9
:10085000DF0111971C9291E0EA3BF907B1F7089587
:10086000982F90958091050389238093050308951F
:100870008091060381111092060308957A30A8F43E
:10088000693098F4E62FF0E099E0799FE00DF11DD2
:1008900011249AE5899FE00DF11D1124EE0FFF1F31
:1008A000ED54FD4F85919491089580E090E0089576
:1008B0009091100392FF06C0282F28712830F9F478
:1008C000877F846093FF06C0282F28712831F1F4B8
:1008D000877E84612091110320FF06C0382F387174
:1008E0003830D9F4877F816021FF06C0282F287116
:1008F0002831D1F4877E816194FD877E0895282F69
:1009000024712430F9F68B7F8860DCCF282F247186
:10091000243101F78B7E8861DDCF382F3171313082
:1009200019F78E7F8860E0CF282F2171213121F7C0
:100930008E7E8861E1CFCF93DF93EC01803E9105FD
:1009400009F475C090F58133910509F4B9C088F4B4
:100950008932910509F4ADC08A32910509F4B7C016
:10096000019709F475C0CE010497813A9105D0F43E
:100970006FC08933910509F452C08238910509F49A
:100980004EC08533910509F48DC0883A910530F445
:10099000853A910540F3A497D0645AC08F3B9105E6
:1009A00008F4EBC0C0E0D0E053C0843E910509F4E8
:1009B0005EC0A8F4823E910509F446C0833E9105CD
:1009C00009F44AC0C11560E4D60708F0E1C0C83E8A
:1009D000D105F0F1CE019A958F3F9E41C8CF863E5A
:1009E000910509F44FC0873E910509F450C0811567
:1009F00023E5920708F072C0811532E5930708F0ED
:100A0000E7C0811540E59407E8F2811551E59507A7
:100A100008F4C1C0D82FCC27C16FD06A19C080910B
:100A2000100383708823A1F0C0EED0E011C0809144
:100A3000100380FDF6C09091110390FF09C0C3EE32
:100A4000D0E084FDAFCF04C08091100382FDF7CFCA
:100A5000CE01DF91CF9108958091100382FDE4C013
:100A60009091110390FDE0CF84FFF2CF9BCF809156
:100A7000110381FFEDCF80911003C7EED0E084FD1C
:100A800091CFE6CF8091100383FDF7CFE1CF809126
:100A9000100383FDCCC09091110391FFE5CFC4EE0C
:100AA000D0E0D6CF8091100385FFD2CFC9E2D0E04D
:100AB000CFCF8091100385FFCBCFC5E3D0E0C8CF67
:100AC0008091100386FFC4CFCAE2D0E0C1CF8091ED
:100AD000100386FFBDCFC1E3D0E0BACF811539E561
:100AE0009307A0F5811548E5940708F087C08115A4
:100AF00055E59507D0F4811564E5960708F079C0AF
:100B00008695869520E2829FC0011124C370DD275F
:100B100021E030E0A90102C0440F551FCA95E2F759
:100B2000EA01C82BD92BDA6893CF95558F3F9105F1
:100B300011F008F037CF8C2F0E945804C82FD0E056
:100B4000DC2FCC27CC27DF71D06282CFC1158AE59C
:100B5000D80708F458C0CE0190568115904208F08D
:100B600021CF8D2F8F710E94580490E0982F8827F5
:100B700088279F718C2BEC01E7CFC85AD0E0CC0FAF
:100B8000DD1FCE57DE4F0990D881C02DD46460CFD1
:100B9000DF70D06A5DCF9C0174E0369527957A9519
:100BA000E1F7237086958695837030E2839FC001BC
:100BB0001124922BC37021E030E0A90102C0440F40
:100BC000551FCA95E2F7EA01C82BD92BDC6840CF44
:100BD0008695869550E2859FC0011124C370DD275C
:100BE00021E030E0A90102C0440F551FCA95E2F789
:100BF000EACFD82FCC27C46FD06A2ACFD82FCC27E2
:100C0000C06FD06A25CF8C2F8F700E94580434E0BB
:100C1000D695C7953A95E1F7CF709C2FEC01D06936
:100C200017CFC9E3D0E014CFC2EED0E011CFC6EEAB
:100C3000D0E00ECFA0E0B0E0E0E2F6E00C940829AE
:100C40008C01C0900B03D0900C03E0900D03F0904A
:100C50000E038091070390910803A0910903B091BE
:100C60000A03C82AD92AEA2AFB2ACFE1D0E0D70111
:100C7000C6010C2E04C0B695A795979587950A9442
:100C8000D2F780FD09C0219790F7B12C8B2DCDB7FD
:100C9000DEB7E9E00C942429BC2EB8018C2F0E9409
:100CA0003E040E949B04019771F3F0CF0F931F93B2
:100CB000CF93FC01828100811181882391F066230A
:100CC00081F0C8010E941A06C82F682FC8010E942F
:100CD000AC03B8018C2F0E943E04CF911F910F915D
:100CE0000895C8010E94E403C82FF3CFCF93DF9388
:100CF000D82FC92F0E941A066D2F7C2F0E943E0408
:100D00000E949B04DF91CF91089580E00895F894AC
:100D1000E82FE295EF70F0E041A18F7021E030E024
:100D2000B90102C0660F771F8A95E2F7CB01962FB3
:100D30009095942391A392A1892B82A378940895EE
:100D40000895A0E0B0E0E7EAF6E00C940729E90195
:100D5000E42FF0E0ED54FE4F61110BC0E4919E2FA3
:100D60008E2F8983E8839A83CDB7DEB7EAE00C94AF
:100D70002329282F30E0062F10E0F491EF2F86E092
:100D8000829F6001839FD00C1124EE24EA94F12C01
:100D9000C601B7010E944629220F331F45E5469F31
:100DA000C001479F900D1124281B390B822F880FFB
:100DB000280FC701801B910BF89FA001F99F500DD0
:100DC0001124952F209F5001219FB00C1124AB2C92
:100DD000BB24D701AA19BB095D01FA9DD001FB9D77
:100DE000B00D11248B2F5701A21AB1089501209F35
:100DF0005001219FB00C309FB00C1124AB2CBB24B0
:100E0000EA18FB08FE9D9001FF9D300D1124633010
:100E10007105C9F01CEFC11613E0D10650F4613022
:100E2000710509F49ECF6230710589F08E2FE32F92
:100E300098CF6430710571F066307105B9F3E52F14
:100E40009B2F8F2F8ECFEB2F852F9F2F8ACF852F14
:100E5000932F87CF832FE52FF8CF80910003823027
:100E600028F4817082608093000308958830E8F34D
:100E700081708660F8CFEDEFF2E0118282818460AC
:100E800082830895FA01882311F009950895FB01E2
:100E9000FCCFA8E0B0E0EFE4F7E00C94092984303F
:100EA000F8F481111EC0809180008F7780938000BC
:100EB0002D98809186009091870080918600909176
:100EC0008700E0E0F0E0CF0169E070E00E94462991
:100ED00070938900609388002896E8E00C94252997
:100EE00083E090918000906890938000A0918600AC
:100EF000B0918700282F30E00E94962969837A8379
:100F00008B839C8323E030E040E050E00E946E2918
:100F100069017A01F90180918600909187006CE067
:100F200070E00E9446296C157D0568F68091860068
:100F30009091870000918600109187002091860093
:100F40003091870066E070E00E944629C60ED71EE9
:100F5000E11CF11CD701C60145E0880F991FAA1FAB
:100F6000BB1F4A95D1F789839A83AB83BC83C801A1
:100F700066E070E00E94462940E050E0260F371FEF
:100F8000411D511D69817A818B819C810E946E294E
:100F900029833A834B835C83E0918600F09187003C
:100FA000CA01B9010E943629DF019B01AC010E94F0
:100FB000A5296D837E838F8398879B01AC0169810E
:100FC0007A818B819C810E94362969837A838B8305
:100FD0009C83DC01CB015FE0B695A795979587953B
:100FE0005A95D1F7409186005091870060E070E0FB
:100FF000481759076A077B0720F480918600909173
:101000008700BC0165CFFC01680F791F8FEF91E36A
:10101000E617F70709F408952191822728E030E0C8
:1010200087FF08C0880F8927215031092115310514
:10103000B9F7EECF880FF8CF2091D6013091D701C4
:101040002817390771F09093D7018093D601E0916A
:10105000B102F091B202309721F00680F781E02DC5
:10106000099508952091D4013091D50128173907A9
:1010700071F09093D5018093D401E091B102F09189
:10108000B202309721F00084F185E02D0995089592
:101090009C01FC0132968FEF90E04191461751F090
:1010A0008F3F19F4411101C0892F9F5F9630A9F736
:1010B0008F3F09F40895280F311D87FD3A95F901F6
:1010C000628308952FB7F89480914B0290914C025F
:1010D000A0914D02B0914E022FBF0895A4E0B0E060
:1010E000E4E7F8E00C940F298FB7F89420914B02B5
:1010F00030914C0240914D0250914E0229833A8327
:101100004B835C838FBF69817A818B819C8124961C
:10111000E2E00C942B290E946E0808959C014FB7C1
:10112000F89480914B0290914C02A0914D02B091A5
:101130004E024FBF821B930B08958091D3010895F7
:1011400008950895FC019B018091C6019091C7010B
:101150008617970740F0672B29F48091E8008E7777
:101160008093E800C90140E0009741F4411106C0B6
:101170008091E80082FF2FC080E0089520916902ED
:101180002223A9F12530A9F12091E80023FD2DC0EB
:101190002091E80022FDECCF2091E80020FFE4CF71
:1011A0003091F3002091F200009719F028303105BA
:1011B00058F041E02830310509F040E02091E80086
:1011C0002E772093E800D0CF41914093F100019712
:1011D0002F5F3F4FE9CF80916902882341F085302E
:1011E00041F08091E80083FFC3CF81E0089582E061
:1011F000089583E008958091C00187FF13C0809116
:10120000E80082FF06C08091E8008B778093E800B9
:1012100004C0809169028111F2CF08958091690222
:101220008823D9F38091E80080FFF8CF8091E8000F
:101230008E77ECCF2091E4003091E50095E6A9018E
:101240008091EC008170882331F08091E80080FF6C
:1012500006C080E008952091E80022FD1BC0809127
:101260006902882391F0853091F08091EB0085FD33
:1012700010C02091E4003091E5004217530701F3BC
:1012800091509111DCCF84E0089582E0089583E0CD
:10129000089581E00895E8EDF0E080818E7F8083FD
:1012A0001092E2001092DA001092E100A0EEB0E09D
:1012B0008C9181608C9380818F77808319BCA7ED9E
:1012C000B0E08C918E7F8C9380818F7E8083109292
:1012D000BF010895EF92FF920F931F93CF938C015C
:1012E0007B010E941A09C82F81110EC08091E8006D
:1012F00085FD11C08091E8008E778093E8000E9400
:101300001A09882399F3C82F8C2FCF911F910F9121
:10131000FF90EF900895F80180818093F100F1E053
:10132000EF1AF108E114F10479F30F5F1F4FDECFDC
:10133000982FE42FE2709093E900891308C0762F6C
:10134000242F50E0E11111C091E0980FF4CF70917B
:10135000EC002091ED005091F00021FD06C09F5F50
:10136000973049F78093E90008953091EB003E7F74
:101370003093EB003091ED003D7F3093ED003091E4
:10138000EB0031603093EB007093EC002093ED00A4
:101390005093F0002091EE0027FDE1CF0895A0E0EA
:1013A000B0E0E5EDF9E00C940929C8EDD0E08881C2
:1013B0008F7E8883E7EDF0E080818160808384E028
:1013C00082BF81E08093BF0188818E7F888302EE97
:1013D00010E0F80110821092DA0081EEC82ED12CB4
:1013E000F601108288818F7788838881806888835E
:1013F00088818F7D888319BC109269021092BE018A
:1014000010920D021092BD0190EEE92EF12CF70121
:1014100080818B7F808388818160888342E060E067
:1014200080E00E949809F60180818E7F8083F80118
:10143000808181608083808188608083F7018081E2
:101440008E7F8083888180618883CDB7DEB7E8E0B6
:101450000C9425290E947606282F92959F7096302D
:1014600091F060F4925F9F70923030F481E0203F01
:1014700079F030F4283E30F080E008959A5FF3CFA1
:10148000243FD1F7089581E0283EE0F3213FF9CFD2
:10149000089580916A02811110C08091D800806106
:1014A0008093D8008AE18A95F1F700C08091D90035
:1014B00080FF0AC081E080936A0281E090916A0215
:1014C000913009F080E0089582E080936A020E94E2
:1014D0004B0910926902F1CFA4E0B0E0E2E7FAE034
:1014E0000C940F290E94490A882371F00E946E080B
:1014F00069837A838B839C8369817A818B819C81C8
:101500002496E2E00C942B290E946E0869837A836A
:101510008B839C838091AD029091AE02A091AF022B
:10152000B091B00229813A814B815C81280F391F2B
:101530004A1F5B1F29833A834B835C83DDCF0E9464
:10154000490A882319F00E94620808950E946C0AD3
:10155000CB0108950E94490A882359F0E091B10215
:10156000F091B202309729F00190F081E02D0995B9
:10157000089580E00895CF92DF92EF920F931F932A
:10158000CF93DF93CDB7DEB7E0970FB6F894DEBF09
:101590000FBECDBF409103018091000380FF4FC07B
:1015A000E3EAF1E09E012F5F3F4F8E010F5C1F4F7A
:1015B000C901649170E0DB01AA0FBB1FA60FB71F22
:1015C000A752BE4FCD90DD90EC90D901CD92DD9227
:1015D000ED929D013196A017B10759F720910201B4
:1015E00030E0B901660F771F260F371F820F931F58
:1015F0006E9A6EB16F7B7EB17064EFB7F89450E075
:101600009A01220F331F240F351F280F391F82170D
:10161000930759F5EFBF8FE594E00197F1F700C00C
:101620000000E0960FB6F894DEBF0FBECDBFDF918D
:10163000CF911F910F91EF90DF90CF9008958091FF
:10164000040190910501282F30E0F901EE0FFF1FF2
:10165000E20FF31FE752FE4F891708F0A1CF118266
:10166000108212828F5F3396F7CFDC014D91CD014E
:1016700058E07EB9000000C047FF6EB9440F00007B
:1016800000C000C000C06EB900C05A9591F7BFCF2E
:101690000F931F93CF93DF93EC0100E010E0409194
:1016A0000601842F90E0081719076CF00E94BB0A0E
:1016B0008C8190E00196817099278C83DF91CF9186
:1016C0001F910F91089580910401800F912F911D1A
:1016D0009C01220F331F280F391F27523E4F9C8138
:1016E0006091020380910103469550E004171507AD
:1016F0004CF4992349F0409103030E94A1060F5F27
:101700001F4FCDCF9923B9F340E0F7CFE0E0F3E0EE
:1017100080818E7F80830E943B07EDEFF2E0828123
:10172000816082832FEF80E792E0215080409040DB
:10173000E1F700C000000E94BB0A0895CF93DF9339
:10174000D82FC92F81E08093E9008FEF9091E800B6
:1017500095FD07C095ED9A95F1F700008150811134
:10176000F5CF8091E80085FD03C0DF91CF9108950A
:1017700040E050E068E070E08D2F9C2F0E946A09E5
:101780008091E8008E778093E80088E0ED2FFC2FB1
:10179000ABECB1E001900D928A95E1F7E6CF809332
:1017A000C8017093CA016093C901809169028430B5
:1017B00001F582E08093E9008FEF9091E80095FDBC
:1017C00007C095ED9A95F1F7000081508111F5CF92
:1017D0008091E80085FF0DC040E050E063E070E0DC
:1017E00088EC91E00E946A098091E8008E778093EE
:1017F000E8000895BC0183E00E94CF0B0895BC016E
:1018000084E00E94CF0B0895A3E0B0E0EAE0FCE0A2
:101810000C940F299091000390FF1AC09E012F5F36
:101820003F4F0E94A1068B8199812A81E9EDF1E069
:10183000218390838283339632E0E930F307C1F746
:101840000E94BB0A8FE99FE00197F1F700C00000FA
:101850002396E2E00C942B298091D801882369F02B
:101860001092D80140E060E080E00E94040C81E02A
:101870000E9449070E94BB0A089581E08093D80125
:101880004FEF6FEF8FEF0E94040C80E0F1CFA0E0EC
:10189000B0E0EDE4FCE00C940729F82EE92EB62E1A
:1018A000A72E8A0180916E02CC24C394D12C8A3059
:1018B00018F48AE0C82ED12CC1E0D0E06B2D7A2D2F
:1018C0008F2D9E2DF8010995811116C02196CC16F9
:1018D000DD0694F0CC9FC001CD9F900D900D11249A
:1018E00020E030E045E34A95F1F700002F5F3F4FDD
:1018F00028173907B9F7E2CFCDB7DEB7EAE00C9485
:101900002329682F86E090E00E94C42908958091E1
:10191000FA0280FD13C081608093FA02813019F4CD
:1019200089E08093FA028091FA020E94810C8091F2
:10193000FA028695869586950E9449070895982F04
:10194000990F990F990F2091FA022770922B90937B
:10195000FA0221E0983008F420E09091FA0220FB8E
:1019600090F99093FA020E9449078091FA020E942E
:10197000810C08958091050390911203892B809327
:10198000B20190910603992391F0892B8093B201C3
:1019900020E084EB91E0FC013081019631112F5F52
:1019A00031E08A3B9307B9F721110E94380448E0DF
:1019B00050E063EB72E082EB91E00E94052A892BF4
:1019C000A9F088E0E2EBF1E0A3EBB2E001900D9228
:1019D0008A95E1F7E091B102F091B202309731F0CF
:1019E0000280F381E02D82EB91E009950895CF9379
:1019F000C82F8823A9F08CEF8C0F813A98F4E4EB80
:101A0000F1E08AEB91E02191C217B1F18E179F07A7
:101A1000D1F76C2F82EB91E00E9448080E94BA0C2B
:101A2000CF91089580E28C0F883068F4C77021E070
:101A300030E001C0220FCA95EAF780910503822B9E
:101A400080930503EBCF8BE58C0F833038F42C2F7C
:101A50002452330BC9010E941C08E2CFC85AC73177
:101A6000F8F6EC2FF0E0EE0FFF1FEE57FE4F8081EF
:101A700091810E943208D4CF8C2F0E9423040E94AF
:101A8000BA0CC7CF882339F19CEF980F913A28F40C
:101A90000E9423040E94BA0C089590E2980F983097
:101AA00050F4877091E001C0990F8A95EAF7892F69
:101AB0000E943004EFCF9BE5980F933028F480E02C
:101AC00090E00E941C080895885A873120F480E035
:101AD00090E00E94320808950F931F93CF93C82F70
:101AE00000E010E0893311F400E510E08C2F0E9433
:101AF000F70C0115110539F48C2F0E94420DCF917E
:101B00001F910F9108958FE99FE00197F1F700C0B1
:101B1000000001501109EDCFA5E0B0E0E2E9FDE0E1
:101B20000C940F296D83811152C080910B03909109
:101B30000C03A0910D03B0910E0389839A83AB83AC
:101B4000BC83BC01CD010E945703813009F580EEB2
:101B50000E94F70C9D81992341F08BE20E946C0D4D
:101B600080EE0E94420D8EE40DC081EE0E94F70CC3
:101B70008BE20E946C0D81EE0E94420D80EE0E946D
:101B8000420D8BE40E946C0D2596E2E00C942B290B
:101B900080917302811106C081E08093730283EE0D
:101BA0000E94F70C0E946208909372028093710267
:101BB000AD81A11108C081EE0E94F70C8BE20E945A
:101BC0006C0D81EEDCCF8BE20E946C0DCCCF8130AE
:101BD000D9F680910B0390910C03A0910D03B09165
:101BE0000E0389839A83AB83BC83BC01CD010E9421
:101BF0005703813049F49D818CEA992349F08BEA9F
:101C00000E946C0D89EABECFAD81A11105C08AEAA0
:101C10000E946C0D8AEAB6CF89EAF2CF882339F0A8
:101C200090910503892B809305030E94BA0C0895B7
:101C3000882321F00E9430040E94BA0C08950F936B
:101C40001F93CF93DF93C62FD42F122F8823A9F091
:101C50006093FB020E9462089093BB018093BA01DB
:101C6000C77081E001C0880FCA95EAF70E940E0E86
:101C7000DF91CF911F910F9108958091FB0268131E
:101C800032C08091BA019091BB010E948E08883CBD
:101C9000910548F5CD130CC0812F0E946C0DD770B3
:101CA00081E001C0880FDA95EAF70E94180EE0CFB4
:101CB000C77001E0802F01C0880FCA95EAF70E9423
:101CC000180E80E28D0F883050F48D2F877001C080
:101CD000000F8A95EAF7802F0E940E0EDDCF812F2C
:101CE0000E946C0DC5CFC77081E001C0880FCA95F6
:101CF000EAF7DBCF80E090E00E941C0880E090E0F3
:101D00000E943208109212030E94BA0C0895109299
:101D10000503E4EBF1E086E0DF011D928A95E9F727
:101D20000E947A0E08950E94870E2FEF84E39CE0B4
:101D3000215080409040E1F700C0000088E19CE025
:101D40000FB6F894A895809360000FBE9093600042
:101D5000FFCFAAE2B0E0EFEAFEE00C940E2980EC9F
:101D600091E0FC0101962091F100208321E0883C64
:101D70009207B9F78091C101893009F456C0C8F4BF
:101D8000823009F4B2C0833009F481C0813071F12E
:101D90008091E80083FFE6C08091C0019091C1016D
:101DA0009A3008F0DFC0E92FF0E0E35EF54D0C94C7
:101DB00090298A3009F488C08B3051F78091C00196
:101DC000813231F78091C4019091C501892B01F7CF
:101DD0008091E800877F8093E8000E94FB08809153
:101DE000C201809300010E94870ED2CF8091C00172
:101DF000813A71F68091E800877F8093E8008091B6
:101E0000C4019091C501892B61F060E080E090E011
:101E100070E00E94A2088091E8008B778093E80030
:101E2000B7CF68E08BEC91E0F3CF8091C0018132B5
:101E300009F0AECF8091C4019091C501029708F0DE
:101E4000A7CF8091E800877F8093E8008091E80029
:101E500082FF18C09091F3008091F200029731F454
:101E60008091F100813011F0863021F48091F100F1
:101E70008093D3018091E8008B778093E8000E94E3
:101E8000FB0886CF809169028111E0CF81CF8091DC
:101E9000C001813A09F07CCF8091C4019091C501C5
:101EA000892B09F075CF8091E800877F8093E80047
:101EB0008091E80080FFFCCF809100018093F100C9
:101EC0008091E8008E77D9CF8091C001813209F0EE
:101ED0005FCF8091E800877F8093E8000E94FB0835
:101EE0008091C3018093BC0153CF8091C001813A9E
:101EF00009F04ECF8091E800877F8093E8008091C1
:101F0000E80080FFFCCF8091BC01D8CF803889F0F9
:101F1000823841F58091C4018F70873018F5809325
:101F2000E9008091EB0085FB882780F91092E90099
:101F300006C08091BD0190910D0291118260909137
:101F4000E800977F9093E8008093F1001092F100F1
:101F50008091E8008E7723C0811116C08091C20164
:101F6000813011F18091E80083FF0AC08091E80080
:101F7000877F8093E8008091EB0080628093EB0084
:101F8000AA96E3E00C942A29823061F78091C2017D
:101F9000882389F01092E9008091E800877F809380
:101FA000E8000E94FB08DECF81E0933009F080E07A
:101FB00080930D02EFCF8091C4018F702FEF280F17
:101FC000263080F68093E9002091EB0020FFE2CFDD
:101FD000933031F48091EB0080628093EB00DACF94
:101FE0009091EB0090619093EB0021E030E0A9012B
:101FF00002C0440F551F8A95E2F74093EA00109201
:10200000EA008091EB008860E8CF8111ABCF10919E
:10201000C2011F778091E3008078812B8093E300D9
:102020008091E800877F8093E8000E94FB08809100
:10203000E80080FFFCCF8091E30080688093E3009C
:1020400083E0111101C082E0809369028BCF805838
:10205000823008F087CF4091C2015091C3014C3DBE
:1020600083E0580799F583E08A838AE289834FB732
:10207000F894DE01139620E03EE051E2E32FF0E019
:1020800050935700849120FF03C082958F703F5F6B
:102090008F708A30C8F0895C90E08D939D932F5F9C
:1020A000243161F74FBF8091E800877F8093E8007B
:1020B0006AE270E0CE0101960E94A2088091E800D9
:1020C0008B778093E8004ECF805DE6CF2091C401EE
:1020D0003091C501852F99278330910509F160F46E
:1020E0008130910509F472C0029709F03BCF8BE370
:1020F00090E0EEE1F1E029C08132910509F45AC087
:10210000829709F02FCF2115310509F469C02130DC
:10211000310509F027CF82E390E0ECEAF0E015C04A
:10212000CA0199274130B1F18230910509F43AC0D2
:10213000892B09F017CFEFE9F1E0E4918E2F90E0C1
:10214000EFE9F1E0009709F40DCF2091E800277F37
:102150002093E8002091C6013091C70182179307B0
:1021600008F49C0140E02115310509F03EC0411101
:102170003CC08091E80082FDA1CF80916902882354
:1021800009F49CCF853009F499CF8091E80083FF52
:10219000F0CF94CFEFE8F1E0E4918E2F90E0EFE8FC
:1021A000F1E0D0CFEBE6F1E0E4918E2F90E0EBE6AA
:1021B000F1E0C8CF2115310571F02130310509F06A
:1021C000D1CE89E090E0E9E4F1E0BFCF82E190E098
:1021D000E9E5F1E0BACF89E090E0E0E3F1E0B5CFE6
:1021E00080E490E0EEEDF0E0B0CF809169028823CA
:1021F00009F464CF853009F461CF8091E80083FD54
:102200005DCF8091E80082FDB4CF8091E80080FF2F
:10221000AACF9091F3008091F2002115310519F0B9
:102220008830910550F041E0089709F040E0809136
:10223000E8008E778093E80096CF44914093F100B8
:102240003196215031090196E8CF803809F08ACEC5
:102250008091E800877F8093E8008091BE018093A1
:10226000F10076CE81117ECE1091C201123008F0BD
:1022700079CE8091E800877F8093E8001093BE01BB
:102280000E94FB08112381F084E08093690242E000
:1022900061EC81E00E94980942E261EC82E00E94D8
:1022A0009809809169025ECE8091E30087FDECCFB2
:1022B00081E0EBCF609307037093080380930903D9
:1022C00090930A030E947A0E089560930B03709313
:1022D0000C0380930D0390930E030E947A0E0895D1
:1022E000A4E0B0E0E6E7F1E10C940D2941E050E014
:1022F00060E070E004C0440F551F661F771F8A9589
:10230000D2F780910B0390910C03A0910D03B09133
:102310000E038A019B01082B192B2A2B3B2BC90189
:10232000B8010E9465112496E4E00C942929A4E0E8
:10233000B0E0EDE9F1E10C940D2941E050E060E0FE
:1023400070E004C0440F551F661F771F8A95D2F7AF
:10235000409550956095709580910B0390910C037A
:10236000A0910D03B0910E038A019B01082319234C
:102370002A233B23C901B8010E9465112496E4E099
:102380000C94292920910F038095822380930F03B9
:10239000982F9770911113C030E0482F082E000C31
:1023A000550B2417350759F09091110392FF07C080
:1023B0008595859585950E94971110920F03089534
:1023C000CF93C0911103C2FB992790F9981791F010
:1023D00080FBC2F9C09311036091100384E090E088
:1023E0000E94C4296C2F82E290E00E94C42982E0FE
:1023F0000E94C211CF9108950F931F93CF93DF9343
:102400008B01D82FC92F0E942D07A8016D2F7C2F7B
:1024100088E090E00E94D629DF91CF911F910F9123
:102420000895E0E0F3E083E0808311828FEF828300
:1024300083831482EDEFF2E082818360828363E024
:1024400070E08FEF9FEF0E94FC110895A4E0B0E0D0
:10245000ECE2F2E10C940F2980910403833018F42C
:102460008F5F809304038091000390910103A091FA
:102470000203B0910303BC01CD010E94FC1124961C
:10248000E2E00C942B29A4E0B0E0E9E4F2E10C9442
:102490000F2980910403882319F08150809304034D
:1024A0008091000390910103A0910203B091030376
:1024B000BC01CD010E94FC112496E2E00C942B2972
:1024C000A7E0B0E0E6E6F2E10C940B29F82E062F27
:1024D000142FE22E8091000380FF4EC0E82FE69576
:1024E000F0E0E459FE4F90819093FD028E7F8230A0
:1024F000F1F49E012F5F3F4F8F2D0E94A106809126
:10250000000380FF14C04B8159816A8180910401CE
:1025100090910501282F30E0F901EE0FFF1FE20F27
:10252000F31FE752FE4F891758F10E94BB0A8091B2
:1025300001038F1108C080910203801304C08091B1
:102540000303811729F08091FF0282608093FF02CC
:10255000F09201030093020310930303EE2061F055
:102560008091000390910103A0910203B0910303B5
:10257000BC01CD010E94FC112796E6E00C942729AE
:102580006183508342838F5F3396CDCFE0E0F3E0E9
:10259000818121E043816281885F0E9460120895F9
:1025A000E0E0F3E0818121E04381628188500E9474
:1025B00060120895E0E0F3E0628121E1620F08F427
:1025C0006FEF21E0438181810E9460120895E0E075
:1025D000F3E0628121E1621B08F460E021E04381C5
:1025E00081810E9460120895E0E0F3E0438121E1DF
:1025F000420F08F44FEF21E0628181810E94601256
:102600000895E0E0F3E0438121E1421B08F440E05B
:1026100021E0628181810E9460120895CF9384E05D
:1026200090E00E94B029C82F82E290E00E94B02979
:10263000982F8C2FCF910895A0E0B0E0E2E2F3E173
:102640000C940929FA0169017801C82F880FDD0B64
:102650003097B1F0DE0193E0AA0FBB1F9A95E1F726
:10266000AB5EBE4F11968D919C911297815B9D4FF1
:102670004C9150E0E417F50708F4AF010E94122ACC
:10268000CE010E948A28182F8823D1F0E114F1048A
:10269000B9F083E0CC0FDD1F8A95E1F7FE01EB5E18
:1026A000FE4F438150E0E416F50608F4A701CB5E27
:1026B000DE4F6C817D81615B7D4FC6010E94122AD5
:1026C000812FCDB7DEB7E8E00C942529A8E0B0E073
:1026D000ECE6F3E10C940D29409133025091340261
:1026E00060913502709136022FB7F89480914B02B9
:1026F00090914C02A0914D02B0914E022FBF841BCD
:10270000950BA60BB70B11E084369105A105B10519
:1027100020F10E946C0ADC01CB010296A11DB11DC3
:1027200089839A83AB83BC8300E010E020E030E033
:1027300044E050E0BE016F5F7F4F84E00E941C13B5
:10274000182F882351F00E946E0860933302709313
:1027500034028093350290933602812F2896E4E06C
:102760000C942929A1E0B0E0E8EBF3E10C940429F2
:10277000762E6A014901580101E010E09E012F5FA9
:102780003F4F40E050E060E070E00E941C13182FC3
:10279000882309F442C0D6014D915D916D917C91E1
:1027A0002FB7F89480914B0290914C02A0914D026A
:1027B000B0914E022FBF841B950BA60BB70B84362E
:1027C0009105A105B10538F4B701C5010E940308C0
:1027D0009981891711F18701940140E050E060E090
:1027E00070E0872D0E941C13182FB701C5010E94AD
:1027F00003089981981731F010E0812F2196EDE0C0
:102800000C94202911701123C1F30E946E08F60167
:102810006083718382839383F0CFA701B501C401E4
:102820000E94122AEACFAAE0B0E0E9E1F4E10C94B8
:1028300009296B018AE0E82EF12C00E512E09E01E7
:102840002F5F3F4F47E452E061E080E00E94B21307
:10285000882349F09AE0FE013196ADE3B2E00190A1
:102860000D929A95E1F79AE0EDE3F2E0D60101903E
:102870000D929A95E1F72A96E8E00C942529A1E0BB
:10288000B0E0E5E4F4E10C940829EE24E394F12CA3
:102890000BE512E09E012F5F3F4F49E352E063E0FA
:1028A00082E00E94B213082F882339F1D12C80E0F6
:1028B0001DC0C0903802CD0C2C2D30E0A90142582B
:1028C0005D4F7A01E1E0F0E0EC0FFD1FED0DF11D31
:1028D0001081FA019081191BB12E1B149CF0912FCD
:1028E00017FD90E0191B111118C0D3949091370275
:1028F000D916F8F281110E948B08802F2196E9E009
:102900000C942429BA94F70180818F5F808361E061
:102910008C2D0E948C0D802FE0CF1F5FF7018081EE
:102920008150808360E08C2D0E948C0D802FDBCF46
:10293000A0E0B0E0EEE9F4E10C940929EB01942F5A
:10294000B901A801C880D980EA80FB80EFB7F8946C
:1029500000914B0210914C0220914D0230914E0299
:10296000EFBF0C191D092E093F0904361105210579
:10297000310510F4992371F000E010E020E030E020
:102980000E941C13882339F00E946E0868837983A3
:102990008A839B8381E0CDB7DEB7E8E00C942529DC
:1029A000A1E0B0E0E6EDF4E10C940D298091FA028B
:1029B00080FF18C0869586958695898341E0909121
:1029C0006002981301C040E001E010E09E012F5F1B
:1029D0003F4F6FE272E085E00E9498142196E4E098
:1029E0000C94292980E0E9CFA8E0B0E0EAEFF4E117
:1029F0000C940D2925E0E0E0F3E0CE010196DC0126
:102A000001900D922A95E1F73091FD022091FE028E
:102A10005091FF023E832F83588741E09C01511162
:102A200001C040E008E010E06BE272E086E00E9446
:102A3000981481111092FF022896E4E00C94292941
:102A400060910003669570E041E050E081E091E024
:102A50000E94F829892B19F481E08093FE020E94DC
:102A60009F0A90937502809374028091FF028460A4
:102A70008093FF020895A4E0B0E0E1E4F5E10C9456
:102A80000F299091000390FF39C08823D9F1843039
:102A9000D8F58F77880F909100039170892B8093E0
:102AA00000038091FF0281608093FF02662361F042
:102AB0008091000390910103A0910203B091030360
:102AC000BC01CD010E94FC1160910003669570E08D
:102AD00041E050E081E091E00E94F829892BB1F0BB
:102AE0000E943B0781E08093770220E0409103033E
:102AF00060910203809101030E9460122496E2E03B
:102B00000C942B2981E0C6CF83E0C4CF0E9420150E
:102B1000E9CF68EE7EEF80E090E00E94E22960E07D
:102B200082E090E00E94C42960E083E090E00E948F
:102B3000C4291092070310920803109209031092FF
:102B40000A0360E084E090E00E94C42964E082E22D
:102B500090E00E94C42960E085E090E00E94C429D2
:102B600060E086E090E00E94C4296FEF87E090E08B
:102B70000E94C42940E050E0BA0188E090E00E9441
:102B8000D62960E08DE090E00E94C42940E050E04A
:102B9000BA0188E190E00E94D62960E087E190E0E8
:102BA0000E94C42940E050E0BA018CE190E00E940C
:102BB000D62960E070E080E290E00E94E22940E0E7
:102BC00050E0BA0188E190E00E94D6290E94870C6B
:102BD00083E00E949F0CE0E0F3E0808181608083CD
:102BE00061E086950E943B1521E04FEF6FEF80E09A
:102BF0000E94601240E050E0BA018FE090E00E9435
:102C0000D62940E050E0BA0183E190E00E94D62945
:102C10000895A5E0B0E0EFE0F6E10C9406297C0110
:102C2000DC019C9111968C91119713962D913C91FA
:102C3000232B09F4F4C189238F3F09F4F0C161E02B
:102C4000C7010E94560689839A83F70182818823EF
:102C500009F454C1E981FA81EF5AFD45EA30F105E2
:102C600008F04CC1E95DF54D0C94902993E3C92E11
:102C700096E0D92EF6018491811123C0D7011296D6
:102C80008C9181119EC109811A81073F2CE51207A1
:102C900009F465C227E245EE64EE053F3CE5130703
:102CA00009F452C2F7018281882309F4CFC010923F
:102CB000FB0209811A8102362DE5120709F010C2C4
:102CC00044C1813009F04EC086010F5F1F4FF801EB
:102CD0008491813059F40F5F1F4FF80184910E9455
:102CE0006C0D6801BFEFCB1ADB0AC4CF823041F410
:102CF00086010E5F1F4FF80184910E94F70CF1CFFF
:102D0000833041F486010E5F1F4FF80184910E94C9
:102D1000420DE7CF843029F786010E5F1F4FF8017F
:102D2000849120E030E04AE0F80131968053990B1D
:102D30008A30910560F02115310599F28FE99FE005
:102D40000197F1F700C0000021503109F4CF429FF4
:102D5000B001439F700D11249C01260F371F8491F1
:102D60008F01E2CFE82FF0E0ED54FA4F9490282F36
:102D700026952695269530E0F901ED55FA4F949168
:102D80008770F901ED56FA4FA490B12C082E02C0BD
:102D9000B594A7940A94E2F7A1E0AA22BB24F90112
:102DA000ED57FA4F049110E0082E02C015950795D3
:102DB0000A94E2F701701127292F30E002C03595FF
:102DC00027958A95E2F720FD0DC0A114B104A9F45E
:102DD000892D0E946C0D012B19F08CE20E946C0D64
:102DE00086017FCF81EE0E94F70CA114B10479F423
:102DF000892D0E946C0D81EE07C086EE0E94F70CB3
:102E0000892D0E946C0D86EE0E94420DE4CF86EE65
:102E10000E94F70C892D0E946C0D86EE0E94420DD7
:102E2000EACF82EE0E94F70C8AE10E946C0D82EEDE
:102E300007C080EE0E94F70C80E50E946C0D80EECA
:102E40000E94420DF701828181110FC209811A810E
:102E500006312CE5120709F096C18091FC02811120
:102E6000FBC289E20E942304F4C280EE0E94F70CA8
:102E70008FE4E3CF82EE0E94F70C81EE0E94F70C04
:102E800080E50E946C0D81EE0E94420DD0CF82EE53
:102E90000E94F70C81EE0E94F70C8FE4F2CF82EED5
:102EA0000E94F70C81EE0E94F70C86E3EACF82EED7
:102EB0000E94F70C81EE0E94F70C87E3E2CF89E3D2
:102EC0000E946C0D8091F902882309F459C0109278
:102ED000F90260E08091F8020E943B158091F702B0
:102EE000882309F45CC01092F70283E00E949711D6
:102EF00020E04FEF6FEF80E80E946012F7018281BF
:102F0000882309F4CDC009811A810F3B2CE51207F3
:102F100009F499C008F04EC00D3B4CE5140709F4C4
:102F20006AC00E3B5CE5150709F47DC083E00C3BED
:102F30006CE5160709F460C01092FB0209811A8142
:102F400002362DE5120709F0D1C00E940E139093AE
:102F50001103809584FB809584F980931003609120
:102F6000100300911103098384E090E00E94C429BA
:102F7000698182E290E00E94C4290E94870E3EC0CF
:102F800081E08093F9028091000380FF06C086955E
:102F90008093F80260E083E09FCF80E0F9CF81E08A
:102FA0008093F70283E00E94701120E04FEF6FEFF3
:102FB0008FEBA2CF09811A81003C2CE5120709F49E
:102FC0005FC009811A8181E0013C2CE5120709F0FC
:102FD00067C08091FA028695869586958F5F8F717E
:102FE000843008F080E0880F880F880F9091FA02F3
:102FF0009770892B1DC080E00E949F0C80910F0369
:103000008770882361F0D70112968C91882339F05C
:103010008091110382FF03C082E00E94C2112596B5
:10302000EBE00C9422298091FA02883018F1885044
:103030008093FA0291E0883008F490E08091FA02DF
:1030400090FB80F913C09091FA02892F869586959E
:103050008695983140F48F5F880F880F880F97709E
:10306000892B8093FA028091FA0281608093FA02A0
:103070000E94810C8091FA028695869586950AC0F9
:103080008091FA0280FF09C08E7F8093FA020E942D
:10309000810C80E00E944907B1CF0E94870CAECF1F
:1030A00009811A81043F2CE5120709F454C0F0F598
:1030B000093D4CE5140709F44AC028E241E00A3D05
:1030C0005CE5150709F445C0083D6CE51607C9F134
:1030D000D70112968C91882309F445C01092FB0207
:1030E00009811A8103361D4508F0C8C009811A817B
:1030F00006312CE5120708F0D6C002303CE5130774
:1031000008F42DC20E940E139093110380931003B4
:10311000F801E350FC45809110038160E331F10533
:1031200008F01BCFEF5CF54D0C94902909811A81B2
:10313000063F2CE5120709F0A6CD26E241EE62EE2D
:1031400003C026E241EE61EE0E941F0E57CF27E238
:1031500045EE65EEF9CF26E241EE60EEF5CF27E2CF
:1031600045EE66EEF1CF09811A8106312CE5120792
:1031700009F473CE80910503827209811A81073D9B
:103180001C4508F46BC109811A810E352DE5120723
:1031900009F434CFF701828100811181882309F479
:1031A0001EC2C8010E941A068983682FC8010E94A6
:1031B000AC03B80189810E943E040E949B048D8368
:1031C0009983D70112960C9112971596DC90D294A0
:1031D0008FE0D82280910F0387708823C1F0C02E22
:1031E0000023B1F0892F807F803421F08D81805EB3
:1031F000883068F08091110382FF09C082E00E944C
:10320000C21180910F038770CC24C3948111C12C0B
:10321000898182958F70883009F4CAC208F004C28F
:10322000843008F0E1C119811F70823008F40EC2A9
:103230002981207F203211F01295107F3D813323A8
:1032400009F43DC2313009F477C2002309F481C288
:10325000DD2009F477C2D70115968C91159780FF70
:103260000CC28F7015968C936DC21092FB0209816F
:103270001A8102362DE5120709F467CE09811A81F9
:10328000063A2DE5120739F10C353DE5130709F42F
:10329000A4C108F45EC109811A81083A1D4509F0EC
:1032A00079CF0E94930E89819A818B5F9C45099703
:1032B00008F0A3C00E940E13909311038093100393
:1032C000E981FA81EC5FFC45E830F105C8F4EC5B7C
:1032D000F54D0C9490290E940E1390931103809544
:1032E00080FB809580F939CE80911003826035CEC5
:1032F00080911003846031CE8091100388602DCEC0
:103300008091110381608093110329CE8091110374
:103310008260F9CF8091100380611FCE80911003ED
:1033200080621BCE80911003806417CE0E94870EAE
:1033300080911003806811CE809110038C600DCEB7
:10334000809111038360DFCF809110038E7F05CEC3
:10335000809110038D7F01CE809110038B7FFDCD76
:1033600080911003877FF9CD809111038E7FCBCFA1
:10337000809111038D7FC7CF809110038F7EEDCD9B
:10338000809110038F7DE9CD809110038F7BE5CD77
:103390000E94870E809110038F77DFCD80911003FC
:1033A000837FDBCD809111038C7FADCF80911003A3
:1033B00082FB992790F921E0922790FB82F990FBFC
:1033C00083F9CBCD80911103982F909591708E7FCA
:1033D000892B90FB81F997CF0E94870E9091100363
:1033E000892F97FB87F98058B8CD61E08EE090E097
:1033F0000E94C429B4CD60E0F9CF09811A81063159
:103400002CE51207A9F00C353DE5130709F4E5C0DA
:1034100008F49FC00D351D4509F0BCCE8091110305
:1034200082FB882780F991E089270E94E011B2CEC3
:10343000809105038A7A91E0811101C090E0909318
:10344000FC0265E3811101C069E282EB91E00E9418
:1034500048080E94BA0CD2CD85E304CD09811A81B7
:10346000033C2CE5120708F495CEF801E35CFC451B
:10347000E431F10508F08ECEE45BF54D0C94902913
:103480008091000380FF26C08E7F809300034091CF
:10349000000350910103609102037091030349837B
:1034A0005A836B837C83CB01BA010E94FC110E947A
:1034B0003B078091FF0281608093FF025FEF60E72E
:1034C00072E0515060407040E1F700C000000E947F
:1034D000BB0A94CD81608093000361E086950E94D1
:1034E0003B158CCD46EF51E26BEE71E20E94420734
:1034F00085CD4BEE51E266EF71E2F8CF40ED52E13F
:1035000066EC72E1F3CF46EC52E160ED72E1EECF92
:1035100047EE52E16AED72E1E9CF4AED52E167EE22
:1035200072E1E4CF41E053E164EF72E1DFCF44EFB9
:1035300052E161E073E1DACF43E452E166E272E125
:10354000D5CF46E252E163E472E1D0CF61E081E0A1
:10355000C6CF09811A810F3D1C4509F43BC0098182
:103560001A8181E00B352DE5120709F45ECF0115B4
:103570001C4509F00FCE0E94870E3FEF44E35CE04C
:10358000315040405040E1F700C0000081E080939E
:10359000E00080E28093D8001092C9008FE19EE4A1
:1035A0000197F1F700C0000087E090EBDC01809309
:1035B0004B0390934C03A0934D03B0934E0388E1CB
:1035C0009CE00FB6F894A895809360000FBE90938E
:1035D0006000FFCF0E94891564CE80E026CFC8012D
:1035E0000E94E4038983E5CD843009F4C4C0CC2073
:1035F000B1F080910F0380FD12C0D70112961C928A
:103600008595859585950E947011C7010E940916C0
:1036100080910F038595859585950E94971160E0AF
:10362000C7010E945606FBCC893009F4B9C18A5FF4
:103630008F708230E0F61D81123F09F0C4C189818C
:103640008F710111BDC10E94701102C12981203109
:1036500010F01295107F0023C1F0112371F08D81BD
:10366000805E883018F00D81011109C0809105033A
:10367000812B809305030E94BA0C8D8130C080910C
:103680001203812B80931203F6CF8D810E94420D8D
:10369000112309F4ACCF8D81805E883018F00D8144
:1036A000011104C0812F0E94300406C01095809142
:1036B00012038123809312030E94BA0C98CF2091A9
:1036C000110322FD16C0002369F0112339F0809107
:1036D0000503812B809305030E94BA0C80E00E94B1
:1036E000F70C85CF80E00E94420D112309F47FCFB3
:1036F000D9CF0023A1F090910603812F892BD110FF
:1037000003C00E940E0E73CF41E0D412FACF22FF05
:103710006ECF981709F46BCF8093060368CFD11052
:1037200006C00E943804812F0E94180E60CF51E01D
:10373000D51609F45CCFF5CF002331F065E06D15A7
:1037400008F455CF812FDDCF74E07D1508F44FCFFD
:10375000EACFDD2041F30D81093349F41FEF27EE55
:1037600033E0115020403040E1F700C000008D816F
:103770000E94420D3CCF898186958695837088236F
:1037800069F0813009F033CF8D81998193700111F7
:1037900002C080E090E00E94320829CF8D8199819B
:1037A0009370011102C080E090E00E941C081FCFBE
:1037B00089818370811178C001114AC02D812295C1
:1037C00026952770220F220F4D814F7050E060E048
:1037D00070E0022E04C0440F551F661F771F0A9425
:1037E000D2F70D8180E090E0DC0104FF0FC08FE094
:1037F00090E0A0E0B0E004C0880F991FAA1FBB1F93
:103800002A95D2F780959095A095B0951981169537
:10381000169513701983123059F11330F1F100919C
:103820000703109108032091090330910A03E981ED
:10383000E13099F0842B952BA62BB72BAC01BD0161
:103840004023512362237323CB01BA010E945A11F2
:103850000E94AA0A0E94A203CACE042B152B262B73
:10386000372BB901A801482B592B6A2B7B2BECCFA6
:10387000842B952BA62BB72B40910703509108035F
:103880006091090370910A038C019D01042715279B
:1038900026273727C901B801D9CF8A019B01082BF8
:1038A000192B2A2B3B2BF6CF002309F44EC019818C
:1038B00010FFCECF2D81229526952770220F220F43
:1038C0004D814F7050E060E070E0022E04C0440F64
:1038D000551F661F771F0A94D2F70D8180E090E094
:1038E000DC0104FF0FC08FE090E0A0E0B0E004C076
:1038F000880F991FAA1FBB1F2A95D2F78095909514
:10390000A095B095198116951695137019831230EC
:1039100059F11330E1F100910B0310910C03209148
:103920000D0330910E03E981E13099F0842B952B42
:10393000A62BB72BAC01BD01402351236223732377
:10394000CB01BA010E94651183CF823008F480CF89
:10395000B1CF042B152B262B372BB901A801482BEF
:10396000592B6A2B7B2BECCF842B952BA62BB72BBB
:1039700040910B0350910C0360910D0370910E0365
:103980008C019D01042715272627372706C08A01A9
:103990009B01082B192B2A2B3B2BC901B801D2CF35
:1039A00019811F701983002339F0812F0E94701133
:1039B0008D810E940E0E4CCF8D810E94180E898140
:1039C0000E94971145CF1D81133F78F4103FC9F035
:1039D000113F09F44AC0002309F470C0DD2009F446
:1039E0006AC08D810E94F70C33CF1D81133F01F116
:1039F000143FB9F10111F2CFD1106FC089818F71DD
:103A0000DFCF002391F024E02D1508F421CF0981A8
:103A10000F7181E090E0A0E0B0E004C0880F991F32
:103A2000AA1FBB1F0A95D2F7A3CF15E0D116EDCF81
:103A300060E070E0CB01002309F484CF09810F71AD
:103A400081E090E0A0E0B0E09C01AD01002E04C058
:103A5000220F331F441F551F0A94D2F7CA01B90120
:103A600071CF8091110382FD06C089818F7100237F
:103A700009F4A6CFE8CD002399F009810F710983DD
:103A8000802F0E9470118091110382FF07C018E0FF
:103A9000019FC0011124836080930F038981D3CDDE
:103AA00081E00E94C21121E02D1508F0D1CE82E004
:103AB0000E94C211CDCE89818F71C5CDDD2009F460
:103AC0009DCF0D81093349F41FEF27EE33E01150EC
:103AD00020403040E1F700C000008D810E94420D7F
:103AE000B7CE1F93CF93DF9380914A03803108F0C4
:103AF0004CC080914703882309F447C08091140388
:103B0000209113036091450330914603C09148030F
:103B1000D0914903732F76232817B9F190E02097AD
:103B200009F443C016E07F3F09F43FC0189FF0013D
:103B3000199FF00D1124DF01AB5EBC4F11964C9123
:103B4000119734132CC04C91461329C012964C91F6
:103B5000129741111EC013964D915C914C1B5D0B49
:103B6000483C5105E0F480914A038F708061809356
:103B70004A03E65EFC4F80818F708061808385E41C
:103B800093E00E9409160E941904DF91CF911F91C2
:103B900008950196877099272813C8CFF6CF01960C
:103BA000877099272813BFCFF0CF01968770B4CFC5
:103BB0008F929F92AF92BF92DF92EF92FF920F93FC
:103BC0001F93CF93DF93CDB7DEB72B970FB6F89443
:103BD000DEBF0FBECDBF8C0185E0F801DE01179678
:103BE00001900D928A95E1F7F801F280A380B480EC
:103BF00085E4882E83E0982E90914503209146031A
:103C000040914803509149034115510509F418C1E9
:103C1000822F89238F3F09F413C1D0904703B50148
:103C2000641B750BDD2009F4DDC080914A03683CFC
:103C3000710508F0B9C03181803108F077C0EF2CF0
:103C4000321312C0208129130FC0F1101CC08F70D5
:103C5000806180934A03C4010E94091680914A033F
:103C6000F8018583E12C4FC08F819885AB2889F0BE
:103C7000282F29232F3F69F0E0911403209113038B
:103C800036E0FF20E1F080914A03816080934A038F
:103C9000E9CFFF2039F3F7CF4E2F50E03E9FF001E0
:103CA0001124EB5EFC4F6181691306C060816813CB
:103CB00003C062816111D6CFFA013196E770E21339
:103CC000EBCF8F8198850E947606292F22952F7041
:103CD000903248F49F70992311F08823A1F0805E00
:103CE000883088F004C0225F2F70223028F0C8018D
:103CF0000E940916ED2C07C09F70992381F3F801EB
:103D00009581903160F78E2D2B960FB6F894DEBF1B
:103D10000FBECDBFDF91CF911F910F91FF90EF901C
:103D2000DF90BF90AF909F908F900895321312C094
:103D3000208129130FC0F1100DC08583C8010E9496
:103D4000091686E0F801A5E4B3E001900D928A958A
:103D5000E1F727C0F801808191810E942A0A882317
:103D600009F46AC0FF2009F467C080914A038032D9
:103D700070F020914503309146033A8329831B82DA
:103D8000BD82AC828E83CE0101960E94091686E028
:103D9000F801A5E4B3E001900D928A95E1F70E9445
:103DA000711DEE24E394AFCF803150F485E493E0AD
:103DB0000E94091686E0F40111928A95E9F752CF24
:103DC00031812313C7CF20812913C4CFF110C2CF73
:103DD0008583C8010E94091686E0F40111928A9534
:103DE000E9F7DFCF683C710528F7FF2029F18181D1
:103DF000281316C08081891313C080914A0380FD67
:103E0000A0CF803108F49DCF8583807F803F09F467
:103E100095CF8581982F907F905F8F70892B8DCF64
:103E2000F801808191810E942A0A8111B0CF80918E
:103E30004A03816080934A03C8010E940916B1CFEA
:103E4000FF20D1F3F801808191810E942A0A882302
:103E500099F386E0F801A5E4B3E001900D928A950C
:103E6000E1F780914503909146030E94760697CF33
:103E7000A7E1B0E0EEE3FFE10C940E294B8B5C8BE5
:103E8000962F6D8B7E8B8F8B6111109212031A8A85
:103E900085E0FE017396DE011D9601900D928A95D4
:103EA000E1F79F8786E0FE013D96DE0117960190BF
:103EB0000D928A95E1F7CE0107960E94D81D8111D7
:103EC00031C086E0FE013796DE01119601900D9219
:103ED0008A95E1F78F81988520911303409114030F
:103EE0006A857B85672BF1F089238F3FD9F030E01D
:103EF000C90101968770992750E084179507E9F06A
:103F000096E0929FD001939FB00D1124AB5EBC4F01
:103F1000FE01319601900D929A95E1F7809313037B
:103F20000E94190416E080911403909113038913E1
:103F300012C06796E3E00C942A290E94870E109223
:103F400013031092140386E0E5E4F3E0DF011D9211
:103F50008A95E9F7E7CF189FC00111248B5E9C4F2B
:103F60000E94D81D882329F38091140390E00196C4
:103F70008770992780931403D6CF80E090E00E9449
:103F8000BE29883E9E4F51F00E9489158091FA0209
:103F9000847089618093FA020E94810C86E090E02F
:103FA0000E94B0298093FA02803220F087708861E5
:103FB0008093FA029091FA02892F8170882321F070
:103FC000892F8695869586950E9449070895A2E2D5
:103FD000B0E0EDEEFFE10C940329FE01319684E19F
:103FE000DF011D928A95E9F76DE4A62E61E0B62EF9
:103FF0008F013F01EE24E394F12CEBE5CE2EE1E0BE
:10400000DE2EF50181915F018F3F09F446C0F894DF
:10401000E82FE295EF70F0E021A18F70A70102C0B8
:10402000440F551F8A95E2F7CA01922F982B91A34E
:1040300092A18095892382A3789400C0E2E5F1E003
:1040400021E030E0812C912C41914F3F09F452C086
:10405000A42FA295AF70A05EB0E08C9190E04F705D
:1040600002C0959587954A95E2F78170811142C00B
:10407000C901882A992A220F331FCE16DF0621F79D
:10408000F501319780818F3F11F00E94870650EA39
:104090005A95F1F7D8018D929C920E5F1F4FB2E5B1
:1040A000AB16B1E0BB0609F0ACCF44E150E0B30180
:1040B00089E992E00E94052A8C01F0909802892BF0
:1040C000E1F084E1F301A9E9B2E001900D928A9553
:1040D000E1F781E080936D020E94620880936B0299
:1040E00090936C020E948E08059708F080C081E0D2
:1040F00090E023C180E090E0BCCF80916D028111FF
:104100006DC00E94490AE09198029E012B5E3F4FCC
:104110007901811180C0F0E0EE0FFF1FEC57FD4FD9
:104120008AE0A0E5B2E001900D928A95E1F76AE09D
:1041300070E080E592E00E94030880934F02409176
:10414000810250E06091800270E062587D4FC701AB
:104150000E94122A8D8980935B0261E070E0C701A2
:104160000E94030880935A02C0905C02D0905D02C6
:10417000E0905E02F0905F0280917A0290917B0263
:10418000A0917C02B0917D02C816D906EA06FB0612
:10419000D1F0C0927A02D0927B02E0927C02F0923F
:1041A0007D020E94490A81110EC00E946E08C61A43
:1041B000D70AE80AF90AC092AD02D092AE02E092A4
:1041C000AF02F092B002809160020E944907809194
:1041D00068028111CAC080E090E0AFC080916B029C
:1041E00090916C020E948E08059708F48ACFAF2D3B
:1041F000B0E0AA0FBB1FAC57BD4F8AE0E9E9F2E07F
:1042000001900D928A95E1F710926D02011511054A
:1042100009F06DCF76CF8AE0D9011D928A95E9F732
:104220000E2F10E0000F111F0C571D4F80916E02D2
:104230008A3008F048C043E154E1B701C8010E9448
:10424000470C882309F47DC04FE354E1B701C8014E
:104250000E94470C882309F474C046E653E1B70175
:10426000C8010E94470C882309F46BC040ED54E15B
:10427000B701C8010E94470C882309F462C044EFCB
:1042800054E1B701C8010E94470C882309F459C0C2
:1042900010926E028091830290E0880F991F4AE08D
:1042A00050E0B7018C579D4F0E94052A9C0181E088
:1042B0008093820290917302232BE9F4992309F4ED
:1042C0008ACF10E02BC080916F02909170020E9403
:1042D0008E08843F914008F0AECF80917302909198
:1042E0008202992309F43FC08AE0F70111928A956E
:1042F000E9F710928202A0918302B0E0AA0FBB1FDF
:10430000AC57BD4F8AE0FE01759601900D928A95DB
:10431000E1F710917302112309F4E9CE8091710243
:10432000909172020E948E088F3E924028F083EE98
:104330000E94420D10927302812FA296EEE00C941F
:104340001F2980916E028F3F39F40E94620890937A
:10435000700280936F02C1CF8F5F80936E028A30AC
:1043600008F498CFF2CF8823AACF80FF0DC08091A8
:10437000610280FF2AC09091000391609093000336
:1043800060E086950E943B158091680281FF09C01C
:1043900020E04091640260916302809162020E9479
:1043A00060128091680282FF06C0809167028823B4
:1043B00079F00E9420158091680283FF03C081E09C
:1043C000809377021092680206CF0E94860BDCCFA2
:1043D0000E943B07F0CF8091000386958F5F843069
:1043E00008F081E061E00E943B1508959091000380
:1043F00096958FEF890F913009F483E061E00E9478
:104400003B150895CDB7DEB762970FB6F894DEBFBF
:104410000FBECDBF85B7806885BF85B7806885BF73
:1044200084B7877F84BF0FB6F894A8958091600009
:10443000886180936000109260000FBE80E890E079
:104440000FB6F89480936100909361000FBE85E8E9
:1044500096E09093B1018093B0010E944B090E94B5
:10446000CF098091E20084608093E200789480918B
:104470006902882399F08091E9001091EC0017956A
:10448000112717958F70182B1092E9008091E80082
:1044900083FD0E94A90E1F701093E90082E084BD85
:1044A00093E095BD9AEF97BD80936E001092AD0298
:1044B0001092AE021092AF021092B00287988F98BD
:1044C0008FB1881F8827881F80935B0180915B01D3
:1044D00091E08927880F880F880F8093020188E078
:1044E000809303010E94490A81110E949C278091B8
:1044F0005B01811124C085E0ECE5F1E0DE011A9654
:1045000001900D928A95E1F785E0FE013A96ADE4BF
:10451000B1E001900D928A95E1F789E0E2E6F1E0E1
:10452000DE01119601900D928A95E1F789E0FE0176
:104530003196A2E5B1E001900D928A95E1F7809164
:104540005B0190E0811101C095E09093980285E0B5
:10455000891B809383020DE411E0B2E5EB2EB1E0FC
:10456000FB2ED8018D918D018F3F11F00E9487069F
:10457000E016F106B1F702E511E0ABE5EA2EA1E0A5
:10458000FA2EF80181918F018F3F11F00E9487066A
:10459000E016F106B1F784E1E4E8F2E0DF01282F4C
:1045A0001D922A95E9F7E9E9F2E0DF011D928A956B
:1045B000E9F7269A80E090E00E94BE29883E9E4F4F
:1045C00011F00E94891582E090E00E94B02980934A
:1045D0000E020E940E13909311038093100383E048
:1045E00090E00E94B029282F30E040E050E02F8773
:1045F000388B498B5A8BCA01B9010E945A11259AEE
:104600002D9882E88093800089E1809381008FEF6C
:104610009FEF90938700809386000E94BD1F0E94A9
:10462000BD1F8091090281113BC080E090E00E9493
:10463000BE29883E9E4F21F00E9489150E941112CA
:1046400088E090E00E94B829609300037093010312
:1046500080930203909303038091FF028360809311
:10466000FF02623070F40E94111288E090E00E9414
:10467000B829609300037093010380930203909321
:1046800003030E942D070E943B078091000380FFD7
:1046900004C060E086950E943B1581E0809309028A
:1046A00080915B0191E0892780938002492F481B0C
:1046B0004093380280915B019093810280915B016D
:1046C0009093370280915B01811106C086E9809347
:1046D000140184E98093130180911401E82FE2957D
:1046E000EF70F0E041A18F7021E030E0B90102C02D
:1046F000660F771F8A95E2F7CB01962F909594234A
:1047000091A392A1892B82A380911301E82FE295B6
:10471000EF70F0E041A18F70D90102C0AA0FBB1F5A
:104720008A95E2F7CD019A2F9095942391A392A1B7
:10473000892B82A3EFE8F1E03197F1F700C0000088
:104740001091810264E171E043E151E0F8E2EF2E63
:10475000F2E0FF2EFB018E2F861B811708F476C036
:104760000E94490A811102C00E949F2787E091E0C0
:104770009093B2028093B10264E0C62ED12C5524EE
:10478000539478E1A72EB12CE0E46E2E7724739435
:10479000809169028530F1F480916902853009F4D5
:1047A0007DC00E94870E0E94BD1F0E94AA0A0E941F
:1047B000A20310920C0280910B02882349F0809191
:1047C000000381608093000360E086950E943B15A2
:1047D0000E9420150E94E71F81110E946E08E4E8E4
:1047E000F2E0AFE0B2E000E010E0819091908D91B6
:1047F0009D9188159905A1F0882599257C0121E0D6
:10480000E222FF24412CE114F10409F0B2C0EE24AD
:10481000E394F12C4394EE0CFF1C39E04312A3C047
:104820000F5F1F4F0A30110501F78FEF89838A83CD
:104830001B820E9462088160782F9D838C8349814E
:104840005A816B81892F0E94381FB7C00191802F38
:1048500082958F70805E90E0DC012C91DA013D91B1
:10486000AD01832F82958F70805E90E0DC018C918A
:1048700090E03F7002C0959587953A95E2F7817078
:10488000880F30E00F7002C0359527950A95E2F742
:104890002170822BD7018D937D015DCF80916902BC
:1048A000843009F436C080E00E94490780E00E940D
:1048B000A2030E943B0780910C02811109C07092F3
:1048C0000C0280910003817080930B020E94860B82
:1048D00010920A020FB6F894A895A09260000FBE3D
:1048E0006092600083B7817F846083BF83B78160FB
:1048F00083BF7894889583B78E7F83BF0FB6F89473
:10490000A89580916000886180936000109260009B
:104910000FBE80910D02882309F43ECF0E94E71F4D
:10492000E4E8F2E081919191892B29F4B2E0E83931
:10493000FB07C1F731CF80E189BD82E189BD09B4B0
:1049400000FEFDCF8091D8008F7D8093D8008091AC
:10495000E00082608093E0008091E00081FDFCCF68
:104960000E94870E19CF9C012E213F21232B09F491
:1049700051CF0E94490A8823A9F049820A838E20D8
:104980009F2081E0892809F480E08B830E946208DF
:104990008160782F9D838C8349815A816B81892F17
:1049A0000E94381F000F111FF801E15FFD4F808149
:1049B00091818E259F25918380830E94490A809151
:1049C000FE02882309F46EC09091FD0280910003DD
:1049D0008695891B80937602923079F020EDE22E45
:1049E00027E0F22E00EA16E0933069F48DE4E82E19
:1049F000FF24F3940CE21CE006C094EFE92EFF24A0
:104A0000F39408E41BE080917702882361F0109210
:104A100077020E949F0A909375028093740210920D
:104A20007902109278020E949F0A9C018091740280
:104A300090917502A901481B590B4F3F5F4790F5B4
:104A4000409125024423B1F01092250240912302A7
:104A500050912402241B350B2F3F3F4758F4405DF3
:104A60005A4850932402409323022091FF02286069
:104A70002093FF0280907802909079028E0D9F1D06
:104A8000909375028093740284E792E0F80109958F
:104A90008091780290917902892B21F4892811F074
:104AA00050922502E12C912C6DC00E2D10E0F801E2
:104AB000EC5EFE4F4081E42FE295EF70E05EF0E0A7
:104AC0002081F801ED5EFE4F3081E32FE295EF701B
:104AD000E05EF0E0808190E03F7002C095958795A0
:104AE0003A95E2F78170880F30E04F7002C035953B
:104AF00027954A95E2F72170822BD801A85DBD4F1A
:104B0000EC919E2F93708917E1F1EE0FEE0FE82BD9
:104B1000EC93F0908002FE0CEF70F0E0E059FE4F55
:104B20000A5D1D4F8081D8019C91890F8C9320E0F4
:104B3000843064F0EF2DF0E0E258FD4F80818F5F0C
:104B4000808361E08F2D0E948C0D21E0F80180812F
:104B50008D3F64F4EF2DF0E0E258FD4F80818150ED
:104B6000808360E08F2D0E948C0D21E0D8018C9114
:104B7000082E000C990BB6010E945A29F801808377
:104B8000922AE39480918102E81608F48ECF911066
:104B90000E948B080E94AA0A90912A02891709F4A0
:104BA000F7CD80932A020E94A203F2CD1F921FB676
:104BB0001F9211248F939F93AF93BF9380910A020A
:104BC000811113C080914B0290914C02A0914D0233
:104BD000B0914E024196A11DB11D80934B0290935E
:104BE0004C02A0934D02B0934E02BF91AF919F91A2
:104BF0008F911F901FBE1F90189578941F921FB61B
:104C00001F9211248F939F93AF93BF9380914B0278
:104C100090914C02A0914D02B0914E020196A11DBF
:104C2000B11D80934B0290934C02A0934D02B09320
:104C30004E02BF91AF919F918F911F901FBE1F9009
:104C400018951F920F920FB60F9211242F933F9336
:104C50004F935F936F937F938F939F93AF93BF9384
:104C6000EF93FF938091E10082FF09C08091E20001
:104C700082FF05C08091E1008B7F8093E1008091ED
:104C8000DA0080FF24C08091D80080FF20C080918E
:104C9000DA008E7F8093DA008091D90080FF9BC07C
:104CA00080E189BD82E189BD09B400FEFDCF81E0CC
:104CB000809369028091BF01811109C00E944B0954
:104CC0000E94CF098091E20084608093E20080918D
:104CD000E10080FF17C08091E20080FF13C0809147
:104CE000E2008E7F8093E2008091E20080618093F9
:104CF000E2008091D80080628093D80019BC85E0E2
:104D0000809369028091E10084FF29C08091E200D4
:104D100084FF25C080E189BD82E189BD09B400FE20
:104D2000FDCF8091D8008F7D8093D8008091E100E5
:104D30008F7E8093E1008091E2008F7E8093E2007D
:104D40008091E20081608093E2008091BE0188231F
:104D500009F447C084E080936902809169028091E0
:104D6000E10083FF27C08091E20083FF23C0809190
:104D7000E100877F8093E10082E0809369021092D6
:104D8000BE018091E1008E7F8093E1008091E2007E
:104D90008E7F8093E2008091E20080618093E20048
:104DA00042E060E080E00E9498098091F000886015
:104DB0008093F000FF91EF91BF91AF919F918F9100
:104DC0007F916F915F914F913F912F910F900FBE07
:104DD0000F901F90189519BC109269021092BF0194
:104DE00076CF8091E30087FF02C083E0B4CF81E0FB
:104DF000B2CF1F920F920FB60F921124FF920F9312
:104E00001F932F933F934F935F936F937F938F9352
:104E10009F93AF93BF93CF93DF93EF93FF9309EEED
:104E200010E0F8018081C091EC00C795CC27C795B0
:104E30008F70FC2EF82A1082C0EFD0E08881877F27
:104E4000888378940E94A90EF80110828881886076
:104E50008883CF2DCF70C083FF91EF91DF91CF91E9
:104E6000BF91AF919F918F917F916F915F914F9182
:104E70003F912F911F910F91FF900F900FBE0F90B8
:104E80001F9018958EE1489B03C081508111FBCF84
:104E9000489BFECF0895589880E28A95F1F7589A7A
:104EA0000895FC012BE02A95F1F728E090E080E0DE
:104EB00031E040E14A95F1F7880F489B02C08160DC
:104EC000932742E04A95F1F7000040E14A95F1F757
:104ED00021502111EECF20E12A95F1F729B132E0DE
:104EE0003A95F1F7000040E14A95F1F721709227D9
:104EF0002081920F90830895A1E0B0E0E2E8F7E20C
:104F00000C940B2919828C017C01E60EF11C0E1504
:104F10001F0541F481E09981911180E02196E6E03E
:104F20000C9427290E944227CE0101960E94512706
:104F3000F80181938F01EBCF509A589A08955098B9
:104F4000589AE89AE9E6F0E080818C7F80830895A2
:104F50006150770B91E001C0990F6A95EAF7692FCC
:104F600090E021E0611108C0992399F0589A80E2FD
:104F70008A95F1F758980895362F3823332339F05E
:104F8000589A922730E23A95F1F76695EBCF589808
:104F9000F9CF5898ECCFFF920F931F93CF93DF93E5
:104FA000EC018C01060F111DC017D10729F4CDB7F4
:104FB000DEB7E5E00C942829F9900E944B2768E0C1
:104FC0008F2D0E94A827F0CF1F920F920FB60F923D
:104FD00011240F931F932F933F934F935F936F93DE
:104FE0007F938F939F93AF93BF93EF93FF93CF9351
:104FF000DF930F92CDB7DEB719820E944227CE0110
:1050000001960E945127082F069506950695982F20
:1050100092959570202F2570920F292F23709695C9
:105020009695920F982797708981892B81115CC082
:10503000083008F059C080E18A95F1F7589A509AE3
:1050400082E08A95F1F700C0589888E0089F8001B7
:105050001124D801AB5EBE4F1696ED91FC911797C7
:105060003097A9F0609180017091810114962D9183
:105070003C911597260F371F11968D919C91129791
:10508000680F791F13964C9113978C910995F8012D
:10509000EB5EFE4F6381662351F0209180013091D9
:1050A000810184819581820F931F0E94CB270E94EA
:1050B0004B2780E18A95F1F758985098589A80E1EB
:1050C0008A95F1F7F801EB5EFE4F6081662351F09F
:1050D000209180013091810181819281820F931F03
:1050E0000E947C270E9442270F90DF91CF91FF9171
:1050F000EF91BF91AF919F918F917F916F915F9150
:105100004F913F912F911F910F910F900FBE0F90D4
:105110001F9018950F931F93CF93DF938C010897DF
:105120000CF065C0F894509A589885E08A95F1F78C
:105130000000C02FC695C570802F8570C80F8C2FBA
:105140008370C695C69593E0000F111F9A95E1F7FD
:10515000C80FC8018C2BEC010E944B2700C068E0EF
:105160008C2F0E94A82790E19A95F1F75098589AB1
:10517000489B35C087E090E0489933C0F801EB5E6A
:10518000FE4F6381662361F020918001309181019F
:1051900084819581820F931F0E947C27882321F1AF
:1051A0000E94422780E28A95F1F75898509A90E140
:1051B0009A95F1F7F801EB5EFE4F6081662351F09E
:1051C000209180013091810181819281820F931F12
:1051D0000E94CB270E944B27789481E009C000C031
:1051E000C7CF0197009749F4509A589A789480E075
:1051F000DF91CF911F910F91089500C0BDCF2F92E5
:105200003F924F925F926F927F928F929F92AF9256
:10521000BF92CF92DF92EF92FF920F931F93CF93A3
:10522000DF93CDB7DEB7CA1BDB0B0FB6F894DEBF3A
:105230000FBECDBF09942A88398848885F846E8460
:105240007D848C849B84AA84B984C884DF80EE80AA
:10525000FD800C811B81AA81B981CE0FD11D0FB6B3
:10526000F894DEBF0FBECDBFED010895DB018F9333
:105270009F930E94A529BF91AF91A29F800D911D80
:10528000A39F900DB29F900D11240895AA1BBB1BE4
:1052900051E107C0AA1FBB1FA617B70710F0A61B36
:1052A000B70B881F991F5A95A9F780959095BC0157
:1052B000CD01089597FB072E16F4009407D077FDD3
:1052C00009D00E94462907FC05D03EF490958195AF
:1052D0009F4F0895709561957F4F0895A1E21A2E12
:1052E000AA1BBB1BFD010DC0AA1FBB1FEE1FFF1F8A
:1052F000A217B307E407F50720F0A21BB30BE40BDA
:10530000F50B661F771F881F991F1A9469F7609520
:105310007095809590959B01AC01BD01CF010895DA
:10532000EE0FFF1F0590F491E02D0994A29FB001AC
:10533000B39FC001A39F700D811D1124911DB29FC9
:10534000700D811D1124911D08950E949629A59F1D
:10535000900DB49F900DA49F800D911D1124089570
:10536000F999FECF92BD81BDF89A992780B508952D
:10537000A6E1B0E044E050E00C94EA29A8E1B0E0F6
:1053800042E050E00C94EA29262FF999FECF92BD15
:1053900081BDF89A019700B4021639F01FBA20BDFA
:1053A0000FB6F894FA9AF99A0FBE08950396272F2C
:1053B0000E94C5290E94C429252F0E94C529242F97
:1053C0000C94C5290196272F0E94C5290C94C42945
:1053D000DC01CB01FC01F999FECF06C0F2BDE1BDB5
:1053E000F89A319600B40D9241505040B8F70895A4
:1053F000FC014150504030F001900616D1F7319732
:10540000CF010895882799270895FB01DC0104C086
:105410008D910190801921F441505040C8F7881BAC
:10542000990B0895FB01DC0102C001900D924150DF
:105430005040D8F70895F894FFCF860FAC0FB20F05
:10544000AC0FB20F05102710B20F251132113A1709
:10545000471719173517111736164F1757176E17A5
:105460005F17741978197C198A198E19921996196F
:105470009C19A419A819AC19B019BC19C019C419E0
:10548000C819CE19EC19D6198619B419B819A0196A
:10549000D219E219F519FB19401A721A791A7E1AF3
:1054A000831A881A8D1A921A971A9C1AA11AA61A88
:1054B000FE17FE17FE17FE17FE17FE17FE17FE1744
:1054C000010100100010109D089E0BA008FA0BFFB0
:1054D0000BA108F6F500000001000000000000002C
:1054E0000A01000000000000010B000000000000A5
:1054F000010C000000040D0000000000000111007C
:1055000000000000000812000000000000313267B7
:105510003497F4F1F0373392939594013332363463
:105520009700F1F0F4F5F695679337000001020358
:1055300000FF0100010000FFFF0000010001FF006B
:105540004F02E200E900EA00B500B600B700CD0066
:105550008301CC008A0192019401210223022402DA
:105560002502260227022A02B300B4006F00700051
:00000001FF
