:100000000C944D030C9467290C9485030C94850380
:100010000C9485030C9485030C9485030C94850340
:100020000C9485030C9485030C94A9230C946523EC
:100030000C94A6240C9485030C9485030C948503DE
:100040000C9485030C9485030C9485030C94850310
:100050000C9485030C9482240C9485030C948503E2
:100060000C9485030C9485030C9485030C948503F0
:100070000C9485030C9485030C9485030C948503E0
:100080000C9485030C9485030C9485030C948503D0
:100090000C9485030C9485030C9485030C948503C0
:1000A0000C9485030C9485030C94850301002900AE
:1000B00035001E001F0020002100220023003A000E
:1000C0003B002B0014001A00080015001700000068
:1000D0003C003D00390004001600070009000A003A
:1000E00000003E003F00E10000001D001B00060074
:1000F00019000500B55DC45CE000E2000151E300B9
:1001000000000151000024002500260027002D00DA
:100110002E004C002A00AE001C0018000C0012003B
:1001200013002F00300031004D000B000D000E00B9
:100130000F0033003400000028004B0011001000B5
:100140003600370038000000E50052004E00010084
:100150002C000151E400E7000000500051004F0066
:100160000100010001003A003B003C003D003E0060
:100170003F0001000100B35D01000100010001002A
:100180000100000001000100025101000100B15D09
:10019000B25D01000000010001000100000001004B
:1001A0000100010001000100C05CC15C0100010010
:1001B0000100010000000100000040004100420079
:1001C0004300440045004C004C00010001000100C8
:1001D000520001000100B45D0100010001000100B6
:1001E000500051004F00010001000000010001001B
:1001F00001000100010001000100000001000100F8
:100200000100010002510100010001000000010095
:1002100001000100010001000100010001000100D6
:1002200001000100010001000100010001000100C6
:1002300001000100010000000100010001000100B7
:1002400001000100010001000000010001000100A7
:100250000000010001000100010001000100010097
:100260000100010001000100000001000000010088
:100270000100010001000100010001000100010076
:10028000010001004B00010001000100010001001C
:1002900001000100AF5D4E00B05D010001000000F3
:1002A0000100010001000100010001000100000047
:1002B0000100010001000100010001000100010036
:1002C00000000100010001000100290035001E00AE
:1002D0001F0020002100220023003A003B002B00D9
:1002E00014001A0008001500170000003C003D0033
:1002F000390004001600070009000A0000003E0053
:100300003F00E10000001D001B0006001900050071
:10031000B55DC45CE000E2000151E30000002C0088
:10032000000024002500260027002D002E004C0090
:100330002A00AE001C0018000C00120013002F0051
:10034000300031004D000B000D000E000F00330097
:100350003400000028004B00110010003600370068
:1003600038000000E50052004E0001002C00015151
:10037000E400E7000000500051004F0000047F3F00
:100380001F643214643214783C1E1E140A050001E6
:100390000101010101010101020202020202020245
:1003A0000203030303030303030404040404040417
:1003B00005050505050606060606070707070708DB
:1003C000080808090909090A0A0A0B0B0B0C0C0C8E
:1003D0000D0D0D0E0E0E0F0F0F1010111111121228
:1003E00013131414151516161717181819191A1AA5
:1003F0001B1B1C1D1D1E1E1F202021222223242406
:10040000252626272829292A2B2C2D2D2E2F303141
:100410003232333435363738393A3B3C3D3E3F4053
:100420004142434445464748494A4C4D4E4F50513E
:100430005354555658595A5B5D5E5F6162646566F8
:1004400068696B6C6D6F7072737577787A7B7D7E7F
:100450008082838587888A8C8E8F91939596989ACF
:100460009C9EA0A2A3A5A7A9ABADAFB1B3B5B7BAE7
:10047000BCBEC0C2C4C6C9CBCDCFD1D4D6D8DBDDBB
:10048000DFE2E4E7E9EBEEF0F3F5F8FAFDFFFFAAAF
:100490007F55400102030C0D0E0F00070605040BEB
:1004A0000A09082223252628292A2C2D2F30323309
:1004B0003536383A3B3D3E4042434547494A4C4E2B
:1004C0005051535557595A5C5E6062646668696B57
:1004D0006D6F71737577797B7D7F81838587898A5D
:1004E0008C8E90929496989A9C9E9FA1A3A5A7A863
:1004F000AAACAEAFB1B3B4B6B8B9BBBCBEBFC1C293
:10050000C3C5C6C7C9CACBCCCDCED0D1D2D2D3D425
:10051000D5D6D7D7D8D9D9DADADBDBDBDCDCDCDC43
:10052000DCDDDDDDDDDCDCDCDCDCDBDBDBDADAD911
:10053000D9D8D7D7D6D5D4D3D2D2D1D0CECDCCCB93
:10054000CAC9C7C6C5C3C2C1BFBEBCBBB9B8B6B4B1
:10055000B3B1AFAEACAAA8A7A5A3A19F9E9C9A9841
:10056000969492908E8C8A89878583817F7D7B7912
:10057000777573716F6D6B6968666462605E5C5AF3
:100580005957555351504E4C4A4947454342403EB6
:100590003D3B3A3836353332302F2D2C2A29282648
:1005A00025232205010980A101850319012AB7002D
:1005B000150126B700950175108100C0050C0901D1
:1005C000A101850419012AA002150126A0029501A6
:1005D00075108100C005010906A101050719E02970
:1005E000E7150025019508750181029501750881BF
:1005F000010507190029FF150026FF00950675085B
:1006000081000508190129059505750191029501DB
:1006100075039101C009023B00020100A0FA090420
:100620000000010301010009211101000122400025
:10063000070581030800010904010001030000000F
:100640000921110100012232000705820320000167
:10065000120100020000000810CB57220002010224
:1006600000012203510075006500660072006500FC
:100670006E006300790020005200650076002E00B5
:100680002000320000000E034B0065006500620090
:1006900069006F0000000403090411241FBECFEF9E
:1006A000DAE0DEBFCDBF04B603FE18C08091790347
:1006B00090917A03A0917B03B0917C038730904B9B
:1006C000A740B04B59F41092790310927A0310921C
:1006D0007B0310927C03E0E0F8E3099511E0A0E0D1
:1006E000B1E0EAEAF7E502C005900D92A03EB1073D
:1006F000D9F723E0A0EEB1E001C01D92A937B207FF
:10070000E1F70E94CD240C94B62B0C940000E8ED88
:10071000F0E080818E7F80831092E2001092DA00F8
:100720001092E100A0EEB0E08C9181608C9380810A
:100730008F77808319BCA7EDB0E08C918E7F8C936E
:1007400080818F7E808310925F0308952091E40062
:100750003091E50095E6A9012091EC00822F81708F
:1007600020FF06C08091E80080FF06C080E0089569
:100770002091E80022FD1AC080916C03882389F043
:10078000853089F08091EB0085FD0FC02091E40059
:100790003091E50042175307F9F29150E1F684E0F9
:1007A000089582E0089583E0089581E00895EF922E
:1007B000FF920F931F93CF937C018B010E94A6039E
:1007C000C82F811117C08091E80085FD0BC0809172
:1007D000E8008E778093E8000E94A603882399F3AF
:1007E000C82F08C0F70181917F018093F10001506B
:1007F000110949F78C2FCF911F910F91FF90EF9026
:10080000089580916E0387FF13C08091E80082FFF6
:1008100006C08091E8008B778093E80004C0809147
:100820006C038111F2CF089580916C038823D9F372
:100830008091E80080FFF8CF8091E8008E77ECCFC0
:10084000982F9093E900242F762F50E0891731F0EC
:100850007091EC002091ED005091F00021FD07C057
:100860009F5F973071F78093E90081E008953091A0
:10087000EB003E7F3093EB003091ED003D7F3093F5
:10088000ED003091EB0031603093EB007093EC00A1
:100890002093ED005093F0002091EE0027FDE0CF73
:1008A00080E00895B0E0A0E0E8E5F4E00C948D2A43
:1008B000C8EDD0E088818F7E8883E7EDF0E080810D
:1008C0008160808384E082BF81E080935F038881C0
:1008D0008E7F888302EE10E0F80110821092DA0019
:1008E00081EEC82ED12CF601108288818F77888303
:1008F00088818068888388818F7D888319BC109265
:100900006C0310926D0310926B0310926A0390EEC9
:10091000E92EF12CF70180818B7F808388818160B3
:10092000888342E060E080E00E942004F60180813C
:100930008E7F8083F80180818160808380818860E0
:100940008083F70180818E7F8083888180618883A6
:10095000CDB7DEB7E8E00C94A92AFC0180917403BE
:100960009091750386179707A0F06115710529F41A
:100970009091E8009E779093E80090E061157105F2
:1009800051F4911108C08091E80082FF34C080E0EA
:100990000895BC01F2CF80916C038823C1F18530AA
:1009A000C1F18091E80083FD30C08091E80082FDB4
:1009B000EACF8091E80080FFE1CF8091F3002091A1
:1009C000F200382F6115710519F02830310558F003
:1009D00091E02830310509F090E02091E8002E7771
:1009E0002093E800CBCF81918093F1006150710991
:1009F0002F5F3F4FE7CF80916C03882341F0853014
:100A000041F08091E80083FFBECF81E0089582E04D
:100A1000089583E0089508950895089580916103ED
:100A200008959C014FB7F894809158039091590311
:100A3000A0915A03B0915B034FBF821B930B0895A3
:100A40002FB7F894609158037091590380915A031D
:100A500090915B032FBF08952FB7F89480915803AE
:100A600090915903A0915A03B0915B032FBF089551
:100A70009C01FC0132969FEF80E04191461751F0B6
:100A80009F3F19F4411101C0982F8F5F8630A9F75D
:100A90009F3F09F40895290F311D97FD3A95F901FB
:100AA0006283089520915503309156032817390722
:100AB00071F09093560380935503E0915303F091A6
:100AC0005403309721F00084F185E02D09950895B5
:100AD00020915103309152032817390771F09093F8
:100AE000520380935103E0915303F09154033097E4
:100AF00021F00680F781E02D09950895FC01680F2B
:100B0000791F8FEF91E32191822728E030E087FF62
:100B100009C0880F892721503109C9F7E617F7075F
:100B200091F70895880FF7CF8F929F92AF92BF925F
:100B3000EF92FF920F931F93CF93DF938430B8F51A
:100B4000811136C0909180009F77909380002D98FE
:100B5000A0918600B0918700282F30E00E94222BC0
:100B600023E030E040E050E00E94F22A89019A013F
:100B700080918600909187006CE070E00E94CA2A04
:100B800060177107D8F0C80169E070E00E94CA2AB6
:100B90007093890060938800DF91CF911F910F912E
:100BA000FF90EF90BF90AF909F908F90089583E05B
:100BB00090918000906890938000CACF80918600C9
:100BC00090918700E0908600F0908700E091860089
:100BD000F0918700C6E0D0E0BE010E94CA2A060F4D
:100BE000171F211D311D4801590185E0880C991CF2
:100BF000AA1CBB1C8A95D1F7C701BE010E94CA2A54
:100C00009F0150E040E0260F371F411D511DC501D7
:100C1000B4010E94F22A49015A01E0918600F09144
:100C20008700CA01B9010E94BA2A9B01AC01DF0109
:100C30000E94382B9B01AC01C501B4010E94BA2A65
:100C40002FE096958795779567952A95D1F700912E
:100C500086001091870030E020E00617170728076C
:100C6000390708F095CF609186007091870090CF8A
:100C7000FA01811101C0FB0109950895E5E1F3E056
:100C80001182828184608283089580914B03982F22
:100C90009E7F29F48170826080934B0308958A348B
:100CA000E8F381708864F8CFAF92BF92DF92EF9241
:100CB000FF920F931F93CF93DF93082F162FE90115
:100CC000E42FF0E0E257FC4F611110C0E4915E2F79
:100CD0004E2F4983E8835A83DF91CF911F910F9163
:100CE000FF90EF90DF90BF90AF900895E62EF12C2B
:100CF0004491D42EE42FF0E026E0829FC00111241D
:100D00002FEF30E0B9010E94CA2A802F90E0880FAF
:100D1000991F55E5569FD001579FB00D11248A1B8E
:100D20009B0B982F990F890F5901AE18BF08AE9EE3
:100D3000D001AF9EB00DBE9EB00D11245B2F189F49
:100D400080011124012F11275901A01AB10AAE9E6A
:100D50008001AF9E100DBE9E100D11245901A81ADE
:100D6000B108AE9CC001AF9C900DBE9C900D1124AB
:100D7000892F9927281B390B2E9FC0012F9F900D7B
:100D80003E9F900D1124E92F62307105A1F050F4BF
:100D90006115710509F49DCF6130710581F0EB2F6C
:100DA000512F97CF6430710569F080F0663071057E
:100DB00009F48FCFF4CFE42F4B2F592F8ACFE42F94
:100DC000412F87CFEB2F542F492F83CF4B2F5D2DF2
:100DD000E12F7FCF80E00895F894E82FE295EF703F
:100DE000F0E031A1282F2F7081E090E001C0880F42
:100DF0002A95EAF7982F9095932391A392A1892B96
:100E000082A3789408959091D50292FF06C0282F6E
:100E100028712830F9F4877F846093FF06C0282F5B
:100E200028712831F1F4877E84612091D60220FF59
:100E300006C0382F38713830D9F4877F816021FFA0
:100E400006C0282F28712831D1F4877E816194FD56
:100E5000877E0895282F24712430F9F68B7F8860CF
:100E6000DCCF282F2471243101F78B7E8861DDCF00
:100E7000382F3171313019F78E7F8860E0CF282FFD
:100E80002171213121F78E7E8861E1CF972F7A3051
:100E9000A8F4693098F470E029E0929F600D711D0C
:100EA0001124FB019AE5899FE00DF11D1124EE0F3D
:100EB000FF1FE455FF4F85919491089580E090E0E5
:100EC0000895CF93DF93EC0182389105A9F1D8F50D
:100ED0008133910509F496C048F58932910509F4EA
:100EE0008AC08A9709F495C0C11522E5D20708F097
:100EF000B6C0C11531E5D30708F026C1C83ED105FB
:100F000008F09CC0C03ED10560F5C83AD10508F094
:100F100087C0C53AD10508F0EFC0C130D10509F14D
:100F20002097F9F0C430D105E0F440C08533910535
:100F300009F45AC0C997C1F68091D502837089F02F
:100F4000C0EED0E00EC0833E910599F170F4803E72
:100F5000910501F1823E910539F68091D50282FD1D
:100F600021C0CE01DF91CF910895863E910561F1B8
:100F7000873E910571F1843E910509F0B5CF8091CE
:100F8000D60281FFEECF8091D502C7EED0E084FD7E
:100F90000DC0E7CF8091D50280FD07C19091D602A8
:100FA00090FFDFCFC3EED0E084FFDBCFD0E0C0E026
:100FB000D8CF8091D50282FDFBC09091D60290FDE2
:100FC000BFCF84FFCECFF2CF8091D50283FDDDCF9E
:100FD000C8CF8091D50283FDEEC09091D60291FFDB
:100FE000F0CFC4EED0E0BDCF8091D50285FFB9CF60
:100FF000C9E2D0E0B6CF8091D50285FFB2CFC5E37C
:10100000D0E0AFCF8091D50286FFABCFCAE2D0E06F
:10101000A8CF8091D50286FFA4CFC1E3D0E0A1CFB5
:10102000CF3BD10518F6C85AD0E0CC0FDD1FC6580B
:10103000DE4F0990D881C02DD46493CFC11540E50F
:10104000D40708F064C0C11580E4D80708F05CC07C
:10105000CE019A9581159F4108F483CFA7CFC11582
:1010600036E5D30718F5C11545E5D40708F084C067
:10107000C11584E5D80708F07AC09C2F96959695FF
:101080009E0123703327C115D34508F462C0C1E027
:10109000D0E002C0CC0FDD1F2A95E2F730E2939F2B
:1010A000C0011124C82BD92BDA685BCFC1158AE5A2
:1010B000D80778F4C11599E5D90708F068C0C115BB
:1010C00028E5D20708F472CFDC2FCC27C06FD06A96
:1010D00048CFCE0190568115904208F067CF8D2FF2
:1010E0008F710E94030790E0982F882788279F71AF
:1010F0009C012C2BE90149C0C55AD0E0C958DE4FEC
:10110000C881D0E0D0642DCFDF70D06A2ACFCE0165
:10111000E4E096958795EA95E1F783702C2F269564
:101120002695237040E2249F90011124382B8C2FA8
:101130008370C1E0D0E002C0CC0FDD1F8A95E2F7DA
:10114000C22BD32BDC680DCFDC2FCC27C16FD06A2C
:1011500008CFC1E0D0E002C0CC0FDD1F2A95E2F736
:1011600020E2929FC0011124C82BD92BEBCFDC2F9A
:10117000CC27C46FD06AF5CE8C2F0E940307C82FEE
:10118000D0E0DC2FCC27CC27DF71D062EACE8C2FC9
:101190008F700E94030734E0D695C7953A95E1F722
:1011A000CF709C2FEC01D069DCCEC9E3D0E0D9CE62
:1011B000C2EED0E0D6CEC6EED0E0D3CE0E9420055F
:1011C000089580916B02811110926B0208958095B1
:1011D00090916A02982390936A02089580915F0229
:1011E00090912E02981301C008958F5F8770FACFF7
:1011F000B0E0A0E0EEEFF8E00C948C2A8C01C090F7
:10120000D102D090D202E090D302F090D40280912B
:101210006C0290916D02A0916E02B0916F02C82A8B
:10122000D92AEA2AFB2ACFE1D0E0BC2ED701C60199
:101230000C2E04C0B695A795979587950A94D2F77A
:1012400080FD09C0219788F7B12C8B2DCDB7DEB773
:10125000E9E00C94A82AB8018C2F0E9446070E944E
:101260006107019779F3F1CFCF93DF93EC010E94EF
:10127000F808BE010E9446070E946107DF91CF91E6
:101280000895292F9A3080F5893070F590E039E083
:10129000239F800D911D1124682F677023E0969580
:1012A00087952A95E1F725E0289FF001299FF00D09
:1012B0001124E451FE4F50E040E080E0219130E005
:1012C000062E02C0369527950A94E2F7217033273F
:1012D000042E01C0220F0A94EAF7822B4F5F5F4F62
:1012E0004530510559F7089580E00895292F9A3027
:1012F000A0F5893090F590E039E0239F800D911D95
:101300001124282F277041E001C0440F2A95EAF7E5
:1013100023E0969587952A95E1F725E0289FF0012F
:10132000299FF00D1124E451FE4F30E020E070E0E1
:101330005191DF011197CB01022E02C0969587953E
:101340000A94E2F7817081958527842385278C9301
:101350002F5F3F4F2530310559F70895FC018081FB
:1013600091810E94340992959F70963091F058F4C3
:10137000925F9F70923058F4803F19F030F4883EAD
:1013800030F481E008959A5FF4CF843FD1F380E098
:101390000895883EB0F3813FD1F7F3CF9091460195
:1013A000992329F081FD02C02E9A08952E98089560
:1013B000CF92DF92EF92FF926C01EE24FF2420E0A7
:1013C000C114D104E104F10419F0C701B60120E110
:1013D000C72ED82EE92EFF24C114D104E104F10454
:1013E00019F0285FC701B6016B017C0154E0F69447
:1013F000E794D794C7945A95D1F7C114D104E10466
:10140000F10419F02C5FC701B6016B017C0142E0C9
:10141000F694E794D794C7944A95D1F7C114D104B0
:10142000E104F10419F02E5FC701B6019695879586
:1014300077956795672B682B692B09F02F5F822FB3
:10144000FF90EF90DF90CF90089580935C037093AE
:101450005E0360935D0380916C03843001F582E04C
:101460008093E9008FEF9091E800815095FD06C0D0
:1014700095ED9A95F1F700008111F5CF8091E80084
:1014800085FF0DC050E040E063E070E08CE593E044
:101490000E94D7038091E8008E778093E80008953A
:1014A000BC0184E00E94250A0895BC0183E00E94EB
:1014B000250A0895CF93DF93EC0181E08093E90042
:1014C0008FEF9091E800815095FD06C095ED9A95BB
:1014D000F1F700008111F5CF8091E80085FF14C07D
:1014E00050E040E068E070E0CE010E94D7038091B8
:1014F000E8008E778093E80088E0FE01A2E6B3E082
:1015000001900D928A95E1F7DF91CF910895CF92E6
:10151000DF92EF920F931F93CF93DF93CDB7DEB798
:10152000E0970FB6F894DEBF0FBECDBF60916401A7
:1015300080914B0380FF4BC0E3E9F4E09E012F5FF5
:101540003F4F8E010F5C1F4FC901A4914A2F50E0FD
:10155000DA01AA0FBB1FA40FB51FA55EBC4FCD902B
:10156000DD90EC90D901CD92DD92ED929D01319606
:10157000A017B10751F72091630143E0249F800D2C
:10158000911D11246E9A2EB12F7B3EB130645FB74E
:10159000F894FC01649FE00DF11D1124BF01861732
:1015A000970741F55FBFEFE5F4E03197F1F700C031
:1015B0000000E0960FB6F894DEBF0FBECDBFDF91FE
:1015C000CF911F910F91EF90DF90CF900895809170
:1015D00065019091660123E0829FF0011124E55E90
:1015E000FC4F891708F0A8CF1182108212828F5FFA
:1015F0003396F7CFDC014D91CD01E8E03EB9000014
:1016000000C047FF2EB9440F000000C000C000C05A
:101610002EB900C0EA9591F7C2CF0F931F93CF93D5
:10162000DF93EC0110E000E0909167019017110644
:1016300009F06CF40E94870A8C8190E00196817019
:1016400099278C83DF91CF911F910F91089520915D
:101650006501A801420F511D9A01220F331F240F6B
:10166000351F255E3C4F4C8160914D0380914C03AA
:1016700096959017110651F04CF0442349F0409193
:101680004E030E9454060F5F1F4FCECF4423B9F381
:1016900040E0F7CFB0E0A0E0E0E5FBE00C94892A61
:1016A000EC014C81042F10E09801D8010E94222BFC
:1016B0009B01AC010E94382B4B015C01E0E2F0E0A1
:1016C000E01BF10BA5E5B0E0AC019B010E94382BBB
:1016D0006B017C019F01DF010E941A2B9B01AC0171
:1016E0000E94432B9B01AC01280D391D4A1D5B1D37
:1016F000C701B6010E94F22AF22E822F90E039E251
:101700003F1520F143E0249F900111243595279542
:10171000122F109500E085E5E82EEF188091670103
:10172000081718F10E94870A9C8181E0992319F01B
:10173000903219F48FEF8093620180916201890FDA
:101740008C83CDB7DEB7ECE00C94A52A25E530E01C
:10175000B901681B790B9B01220F331F260F371F1E
:1017600037FFD4CF2F5F3F4FD1CF8E2D01FD8F2D6F
:1017700020916501622F600F7727771F9B01220F51
:10178000331F260F371F255E3C4F412F60914D03BD
:101790000E9454060F5FC2CFEF92FF920F931F93E8
:1017A000CF93DF93EC018C81811109C081E08C83A0
:1017B0001092190392E090936101809360018091EF
:1017C00065019091660123E0829FF0011124E55E9E
:1017D000FC4F891758F110E003E06091670116177C
:1017E00058F10E94870A8091600120911903280F07
:1017F0002093190390916101980F9093610119163C
:1018000054F4022E000C330B409167014150550BEC
:101810002417350734F0819580936001813009F4F5
:101820001C82CDB7DEB7E6E00C94AB2A11821082A1
:1018300012828F5F3396CDCFE12EF12C70E0C7017D
:101840000E94DE2A20916501820F482F50E02091EE
:101850001903022E000C330BE216F306BCF02091A4
:101860006101022E000C330B2E153F057CF0809F8A
:1018700090011124255E3C4F40914E0360914D0331
:1018800080914C030E9454061F5FA7CFFA01EE0F10
:10189000FF1FE40FF51FE55EFC4F118210821282DC
:1018A000F3CFB0E0A0E0E7E5FCE00C948A2AEC017D
:1018B0008A81BB24BA9480FD02C0BB24B394A0905B
:1018C00067018C81811109C081E0B8121EC08FEFC1
:1018D0008A0D8093180381E08C83F12CE12CEA14AB
:1018E000B8F00E94870A8091180391E0B91254C0A1
:1018F00081114DC0809167018150809318031C8233
:10190000CDB7DEB7EBE00C94A62A10921803E3CF14
:10191000009165010E0D1F2D111DC801880F991F23
:10192000080F191F055E1C4FF801118210821282E8
:1019300034E0C32ED12C912C80911803890D813174
:1019400014F18F70082E000C990B8E159F0591F4E1
:1019500080914E038C9DA0018D9D500D11245595B5
:10196000479555954795980160914D0380914C039B
:101970000E9454069B0CF1E0CF1AD108E9F68FEFD4
:10198000E81AF80AACCF87FFDDCF8A0DDBCF815094
:1019900080931803BC82B4CF90E0019660916701F8
:1019A00070E00E94DE2A809318038C83A9CFEF9207
:1019B000FF921F93CF93DF93EC0110E0EE24EA94A3
:1019C000F12C60916701161770F00E94870A9A81C6
:1019D0008C8190FF27C08F5F8C83DF91CF911F9107
:1019E000FF90EF90089520916501422F410F5527F8
:1019F000551FCA019A01220F331F280F391F255E78
:101A00003C4F70E0C7010E94DE2A962F8C814091E6
:101A10004E0360914D03199F800D11240E945406BE
:101A20001F5FCFCF8150D8CF90914B0390FF0EC056
:101A3000909165012091660133E0939FF00111249C
:101A4000E55EFC4F921718F00E94870A0895818383
:101A5000608342839F5F3396F5CFA3E0B0E0E3E37A
:101A6000FDE00C94912A8C0180911A0381110AC027
:101A70009E012F5F3F4F4FEF6FEF0E9454068A8108
:101A800080931A03F8016481613069F080911A0330
:101A900040E0662361F040E0623011F440911A03A7
:101AA00080E060E004C060911A0340E080E00E94A2
:101AB000140DF801848190E0019663E070E00E94CB
:101AC000DE2A84832396E4E00C94AD2AA3E0B0E000
:101AD000ECE6FDE00C94932A90914B0390FF0AC032
:101AE0009E012F5F3F4F0E9454064B8169818A817E
:101AF0000E94140D2396E2E00C94AF2ACF93DF935B
:101B0000EC01EBE4F3E0438162818C810E94660D7D
:101B10008C818F5F8C83DF91CF910895CF93DF937A
:101B2000EC01EC81F0E0ED55FB4F4491EBE4F3E088
:101B3000628181810E94660D8C818F5F8C83DF9131
:101B4000CF910895EBE4F3E080818E7F80830E9443
:101B50003E06E5E1F3E08281816082832FEF80E73A
:101B600092E0215080409040E1F700C000000E94C8
:101B7000870A0895B0E0A0E0E0ECFDE00C948B2A29
:101B80007C015B016A018091B60201E010E08A30BD
:101B900010F40AE010E0C1E0D0E0B501C701F601A1
:101BA0000995811104C021960C171D072CF4CDB79F
:101BB000DEB7EAE00C94A72ACC9F9001CD9F300DB0
:101BC000300D112490E080E045E34A95F1F70000E4
:101BD000019682179307C1F7E0CF80917D028111B2
:101BE00010C08091D80080618093D8008AE18A95E6
:101BF000F1F700C08091D90080FF0AC081E0809396
:101C00007D0281E090917D02913009F080E008959D
:101C100082E080937D020E94870310926C03F1CFD3
:101C20000E94ED0D882359F0E0915303F091540385
:101C3000309729F00190F081E02D0995089580E01A
:101C400008950F931F930E94ED0D882329F00E94A1
:101C500020051F910F9108950E9420050091B70261
:101C60001091B8022091B9023091BA02600F711F31
:101C7000821F931FEECF0E94ED0D882319F00E9462
:101C80002C0508950E94210ECB010895682F86E04F
:101C900090E00E945F2B0895282F220F220F220F21
:101CA000909150039770922B90935003987F21E06E
:101CB00009F420E09091500320FB90F99093500399
:101CC0000E949405809150030E94460E08958091D1
:101CD000500380FD13C0816080935003813019F45C
:101CE00089E080935003809150030E94460E8091BA
:101CF00050038695869586950E9494050895CF9306
:101D000084E090E00E944B2BC82F82E290E00E947A
:101D10004B2B982F8C2FCF91089560914B03669594
:101D200070E04BE050E085E591E00E94932B892B19
:101D300019F481E0809316030E943B0E90931003E8
:101D400080930F0380911703846080931703089595
:101D5000CF92DF92EF92FF926B017C010E944506C9
:101D6000B701A60188E090E00E94712BFF90EF90F0
:101D7000DF90CF900895A3E0B0E0E1ECFEE00C949A
:101D80008C2A082FD62EF42EC22E90914B0390FF52
:101D90003AC0E92FE695AE2FB0E0A654BE4F8C9125
:101DA000809315039E7F923091F59E012F5F3F4FE8
:101DB000802F0E9454064B8169818A810E94140DF4
:101DC00080914C03801308C080914D038D1104C095
:101DD00080914E038F1529F08091170382608093C4
:101DE000170300934C03D0924D03F0924E03CC2086
:101DF00051F060914B0370914C0380914D03909191
:101E00004E030E94A80E2396E9E00C94A82A823083
:101E100019F4F0904E03D4CF863019F400914C039E
:101E2000CFCF8930D9F3893159F6E9516E2F6170DE
:101E3000B62EE695F0E0E257FB4F1491E12C60914D
:101E40006701E61618F00E94870ABACFE19EC0012A
:101E5000112470E00E94CA2A802FB11014C0860F8E
:101E600020916501622F6E0D7727771F9B01220F4E
:101E7000331F260F371F255E3C4F4F2D6D2D0E94BF
:101E80005406E394DCCF861BEBCFEBE4F3E0438115
:101E900021E1421B08F440E021E0628181810E943F
:101EA000BB0E0895EBE4F3E0438121E1420F08F417
:101EB0004FEF21E0628181810E94BB0E0895EBE427
:101EC000F3E0628121E1621B08F460E021E04381DC
:101ED00081810E94BB0E0895EBE4F3E0628121E171
:101EE000620F08F46FEF21E0438181810E94BB0EF5
:101EF0000895EBE4F3E0818121E043816281885021
:101F00000E94BB0E0895EBE4F3E0818121E0438160
:101F10006281885F0E94BB0E089580914F038823E1
:101F200019F0815080934F0360914B0370914C03E3
:101F300080914D0390914E030E94A80E08958091C8
:101F40004F03833018F48F5F80934F0360914B03EE
:101F500070914C0380914D0390914E030E94A80E06
:101F6000089590914B0390FF31C0917081112FC063
:101F7000926090934B0380911703816080931703C5
:101F8000662351F060914B0370914C0380914D0397
:101F900090914E030E94A80E60914B03669570E0ED
:101FA0004BE050E085E591E00E94932B892BB1F046
:101FB0000E943E0681E08093120320E040914E0390
:101FC00060914D0380914C030E94BB0E08958532B1
:101FD00010F09864CECF880F982BCBCF0E948D0E37
:101FE000E9CF61E00E94B10F089580914B0386957F
:101FF000815009F484E261E00E94B10F089580915C
:102000004B0386958F5F853208F081E061E00E9486
:10201000B10F089590914B0390FF08C096959817C3
:1020200028F0961718F40E94FF0F08950E94F10FF0
:102030000895EBE4F3E083E0808311828FEF8283E5
:1020400083831482A5E1B3E012968C91129783608A
:1020500012968C9360817181828193810E94A80E77
:102060000895A4E0B0E0E7E3F0E10C94922A4091F7
:10207000AA025091AB026091AC027091AD022FB7F1
:10208000F8948091580390915903A0915A03B0910C
:102090005B032FBF841B950BA60BB70B11E0843697
:1020A0009105A105B10570F10E94210E6E5F7F4F71
:1020B0008F4F9F4F69837A838B839C83809121010B
:1020C0009091220180579D4F4091200150E0453072
:1020D000510510F044E050E0BE016F5F7F4F0E9459
:1020E000AD2B84E090E00E940D2A182F882351F038
:1020F0000E9420056093AA027093AB028093AC0209
:102100009093AD02812F2496E3E00C94AE2A4F9277
:102110005F926F927F928F929F92AF92BF92EF9257
:10212000FF920F931F93CF93DF937B01FB014080BE
:102130005180628073809FB7F8948090580390908C
:102140005903A0905A03B0905B039FBF8418950871
:10215000A608B708F4E68F169104A104B10418F498
:10216000C1E0442329F1C82F880FDD0BFE0183E075
:10217000EE0FFF1F8A95E1F7E050FF4F81819281BA
:1021800080579D4F408150E00417150708F4A801BF
:10219000B9010E94AD2BCE010E940D2AC82F8823C1
:1021A00039F00E942005F701608371838283938355
:1021B0008C2FDF91CF911F910F91FF90EF90BF90E7
:1021C000AF909F908F907F906F905F904F90089509
:1021D000A8E0B0E0EEEEF0E10C94912A85E0EBE4AB
:1021E000F3E0DE01119601900D928A95E1F780915E
:1021F000150390911603A09117038E839F83A887E0
:1022000041E08885811101C040E008E010E09E01B6
:102210002F5F3F4F62EB72E086E00E9487108111D2
:10222000109217032896E4E00C94AD2AA1E0B0E0E8
:10223000ECE1F1E10C94912A8091500380FF18C0E9
:10224000869586958695898341E09091A1029813A1
:1022500001C040E001E010E09E012F5F3F4F6EEAB9
:1022600072E085E00E9487102196E4E00C94AD2A8C
:1022700080E0E9CF4F925F927F928F929F92AF92D0
:10228000BF92CF92DF92EF92FF920F931F93CF9363
:10229000DF930F92CDB7DEB7C62E4A015901482E03
:1022A000880F5508C2010E940D2A782E882309F450
:1022B00080C0C20133E0880F991F3A95E1F7FC0115
:1022C000E050FF4F438150E04115510511F041E0CE
:1022D00050E080509F4FFC016481758160577D4FB5
:1022E000CE0101960E94AD2BF401408151816281A3
:1022F00073812FB7F8948091580390915903A0915E
:102300005A03B0915B032FBF841B950BA60BB70B31
:1023100084369105A105B10540F4B701C8010E94BA
:102320007E059981891709F444C00C2C000CDD0846
:10233000C6010E940D2A782E811113C0712C872DA1
:102340000F90DF91CF911F910F91FF90EF90DF9051
:10235000CF90BF90AF909F908F907F905F904F9065
:102360000895C60123E0880F991F2A95E1F7FC0123
:10237000E050FF4F438150E0E416F50608F4A70152
:1023800080509F4FFC016481758160577D4FC5016E
:102390000E94AD2BB701C8010E947E059981891367
:1023A000CDCF0E942005F4016083718382839383E3
:1023B000C6CFA701B801C5010E94AD2BC0CFAAE0CE
:1023C000B0E0E5EEF1E10C948D2A6B018AE0E82E95
:1023D000F12C01E912E09E012F5F3F4F48E852E0E7
:1023E00061E080E00E943A11882349F09AE0FE0102
:1023F0003196AEE7B2E001900D929A95E1F79AE03E
:10240000EEE7F2E0D60101900D929A95E1F72A9657
:10241000E8E00C94A92A80916A0290916902892BC4
:102420008093E20190916B02992391F0892B809324
:10243000E20120E084EE91E0FC013191CF01311105
:102440002F5FF1E08A3E9F07B9F721110E94E10852
:1024500048E050E061E672E082EE91E00E94A02B3D
:10246000892BA9F088E0E2EEF1E0A1E6B2E001906C
:102470000D928A95E1F7E0915303F0915403309760
:1024800031F00280F381E02D82EE91E0099508950C
:1024900090E080E00E94680590E080E00E94520594
:1024A000109269020E940B1208956093D1027093FA
:1024B000D2028093D3029093D4020E9448120895CE
:1024C0000F931F9341E050E060E070E004C0440FC0
:1024D000551F661F771F8A95D2F7CB01BA01609509
:1024E0007095809590950091D1021091D202209123
:1024F000D3023091D40260237123822393230E945C
:1025000055121F910F910895909160028095892333
:1025100080936002282F277091F4282F082E000C3A
:10252000330B9217130659F09091D60292FF07C011
:102530008595859585950E94601210926002089598
:10254000CF93C091D602C2FB992790F9981791F0CA
:1025500080FBC2F9C093D6026091D50284E090E07E
:102560000E945F2B6C2F82E290E00E945F2B82E042
:102570000E948412CF9108950F931F9341E050E081
:1025800060E070E004C0440F551F661F771F8A95F6
:10259000D2F78091D1029091D202A091D302B09152
:1025A000D4028A019B01082B192B2A2B3B2BC90132
:1025B000B8010E9455121F910F91089560936C020B
:1025C00070936D0280936E0290936F020E94481286
:1025D000089510926A02E4EEF1E086E0DF011D92B8
:1025E0008A95E9F70E9448120895AAE2B0E0EBEF5D
:1025F000F2E10C94922A8EE693E02091F100FC0126
:102600002193CF01F3E086379F07B9F780916F03DD
:10261000833009F470C0B8F4813009F447C08230C7
:1026200009F4B1C08091E80083FF7EC280916E03FF
:1026300090916F039A3008F077C2E92FF0E0E854E8
:10264000F44D0C94142B8A3009F48CC08B3009F4AF
:102650006FC0893039F780916E03813219F780910C
:102660007203909173030297E8F68091E800877FE8
:102670008093E8008091E80082FF38C09091F300D9
:102680008091F200029731F48091F100813011F0D5
:10269000863021F48091F100809361038091E800FD
:1026A0008B778093E8000E940104BCCF80916E0379
:1026B000813A09F0B7CF8091E800877F8093E800E6
:1026C0008091720390917303892B61F468E082E634
:1026D00093E070E00E94AD048091E8008B778093D6
:1026E000E800A0CF60E090E080E0F3CF80916C0341
:1026F0008111C0CF97CF80916E03813A09F092CFBC
:102700008091720390917303892B09F08BCF809194
:10271000E800877F8093E8008091E80080FFFCCF8D
:10272000809168018093F1008091E8008E77B9CFA5
:1027300080916E03813209F075CF80917203909180
:102740007303892B09F06ECF8091E800877F809317
:10275000E8000E94010480917003809368010E9448
:10276000E91260CF80916E03813209F05BCF8091D6
:10277000E800877F8093E8000E9401048091710344
:10278000809360034FCF80916E03813A09F04ACF66
:102790008091E800877F8093E8008091E80080FFC7
:1027A000FCCF80916003BECF803899F0823809F069
:1027B000BBC1809172038F70873008F0B5C18093E0
:1027C000E9008091EB0085FB882780F91092E900F1
:1027D00006C080916A0390916B0391118260909181
:1027E000E800977F9093E8008093F1001092F10049
:1027F0008091E8008E7794C1882309F482C18230E9
:1028000009F092C180917003811185C1809172039A
:102810008F702FEF280F263008F086C18093E900D3
:102820002091EB0020FF77C1933031F48091EB00D1
:1028300080628093EB006FC19091EB009061909368
:10284000EB0021E030E001C0220F8A95EAF72093E7
:10285000EA001092EA008091EB008860EACF8111D3
:1028600063C1109170031F778091E3008078812B02
:102870008093E3008091E800877F8093E8000E94C6
:1028800001048091E80080FFFCCF8091E300806824
:102890008093E30082E0111183E080936C0344C1D4
:1028A0008058823008F040C180917003909171038C
:1028B0008C3D23E09207A1F583E08A838AE2898335
:1028C0004FB7F894DE01139620E03EE051E2E32F8B
:1028D000F0E050935700E49120FF03C0E295EF70C1
:1028E0003F5FEF708E2F90E0EA30C0F0C7968D9377
:1028F0009D932F5F243159F74FBF8091E800877F68
:102900008093E8006AE270E0CE0101960E94AD0477
:102910008091E8008B778093E80006C1C096E7CFEE
:102920004091720350917303292F332723303105CF
:1029300009F444C078F52130310509F46FC08BE308
:1029400090E0E5E1F6E02230310509F0EDC020919C
:10295000E800277F2093E8002091740330917503ED
:102960008217930708F49C0140E02115310509F016
:1029700064C0411162C08091E80082FDC9CF80919E
:102980006C03882329F2853019F28091E80083FFD7
:10299000F2CFBECF21323105A9F12232310509F043
:1029A000C3C04115510509F443C04130510509F038
:1029B000BBC082E390E0E3EAF5E0C9CF992781301C
:1029C0009105C1F0009759F0029709F0ADC0E2E619
:1029D000F6E0E4918E2F90E0E2E6F6E007C0E6E94B
:1029E000F6E0E4918E2F90E0E6E9F6E0009709F436
:1029F0009BC0ADCFE6E8F6E0E4918E2F90E0E6E8EC
:102A0000F6E0F4CF4115510571F04130510509F060
:102A10008BC089E090E0E0E4F6E099CF82E190E0BD
:102A2000E0E5F6E094CF89E090E0E7E2F6E08FCFD2
:102A300080E490E0E5EDF5E08ACF80916C03882397
:102A400009F466CF853009F463CF8091E80083FDF7
:102A50005FCF8091E80082FD8ECF8091E80080FFFB
:102A600084CF9091F3008091F2002115310519F087
:102A70008830910550F041E0089709F040E08091DE
:102A8000E8008E778093E80070CF44914093F10086
:102A90003196215031090196E8CF803809F044C0C1
:102AA0008091E800877F8093E80080916D03809398
:102AB000F1009ECE811138C0109170031230A0F544
:102AC0008091E800877F8093E80010936D030E9457
:102AD0000104112311F084E005C08091E30087FD1B
:102AE000FACF81E080936C0342E061EC81E00E94C8
:102AF000200442E261EC82E00E94200480916C0399
:102B000013C080917003813079F481E0933009F033
:102B100080E080936B031092E9008091E800877F4A
:102B20008093E8000E9401048091E80083FF0AC0BE
:102B30008091E800877F8093E8008091EB008062BD
:102B40008093EB00AA96E3E00C94AE2A0E94E9126F
:102B50002FEF84E39CE0215080409040E1F700C0DB
:102B6000000088E19CE00FB6F894A895809360007F
:102B70000FBE90936000FFCF882321F00E94E708EA
:102B80000E940B120895882339F090916A02982BC5
:102B900090936A020E940B120895882391F19CEF92
:102BA000980F913A80F4E4EEF1E02AEE31E0919151
:102BB000891303C0DF0111971C922E173F07B9F745
:102BC0000E940B12089590E2980F983050F487708D
:102BD00091E001C0990F8A95EAF7892F0E94E708D2
:102BE000EFCF9BE5980F933028F490E080E00E94AF
:102BF00068050895885A873120F490E080E00E94AB
:102C000052050895AEE1B0E0E8E0F6E10C94852AC3
:102C10008E010F5F1F4F84E1D8011D928A95E9F75D
:102C200061E4E62E61E0F62E680176E4472E71E05D
:102C3000572E66246394712CF1E48F2EF1E09F2EC1
:102C4000F70181917F018F3F09F445C0F894E82F87
:102C5000E295EF70F0E021A18F70A30102C0440F54
:102C6000551F8A95E2F7CA01922F982B91A392A142
:102C70008095892382A3789400C0E8E3F1E021E005
:102C800030E0B12CA12C41914F3F09F46FC0A42F2B
:102C9000A295AF70B0E090968C9190E04F7002C01A
:102CA000959587954A95E2F780FD60C0C901A82AED
:102CB000B92A220F331F8E169F0629F7F701319785
:102CC00080818F3F11F00E94EC0650EA5A95F1F78F
:102CD000D601AD92BC92B2E0CB0ED11C4E145F0473
:102CE00009F0AECF44E150E0B8018BEB92E00E94D6
:102CF000A02B7C01892B41F084E1F801ABEBB2E021
:102D000001900D928A95E1F71091D002E114F1043F
:102D100081F181E0809372020E942C0590937102F0
:102D20008093700280917002909171020E9411054F
:102D3000059798F0ABEBB2E0E12FF0E0EE0FFF1F4C
:102D4000E652FD4F85EC92E02D913D912193319318
:102D50008A179B07C9F71092720281E090E0E11494
:102D6000F10459F06E96E0E10C94A12A90E080E025
:102D70009ECF809172028111D5CF0E94ED0DD82E89
:102D8000E091D002AE014B5E5F4F7A01882309F4D7
:102D90009AC08AE0DA011D928A95E9F70E2F10E0B9
:102DA000000F111F06521D4F8091B6028A3008F0A5
:102DB00055C04FED51E1B701C8010E94BA0D8823FB
:102DC00009F470C04FE259E1B701C8010E94BA0D81
:102DD000882309F467C041E350E1B701C8010E94AC
:102DE000BA0D882309F45EC046E151E1B701C8017C
:102DF0000E94BA0D882309F455C048EE50E1B7018E
:102E0000C8010E94BA0D882309F44CC01092B60282
:102E10008091CF0290E0880F991F4AE050E0B701FF
:102E200086529D4F0E94A02B21E020937C02892B8B
:102E300051F5D12C80917702882371F08091750231
:102E4000909176020E9411058F3E924028F083EE09
:102E50000E94CD15109277028D2D84CF8091730240
:102E6000909174020E941105843F914008F0A1CF17
:102E700080917C028823E9F28AE0F70111928A9519
:102E8000E9F710927C02A091CF02B0E0AA0FBB1F1D
:102E9000A652BD4F8AE0FE01759601900D928A956B
:102EA000E1F7C8CF8091B6028F3F31F08F5F8093FA
:102EB000B6028A3008F4ACCF0E942C0590937402BD
:102EC00080937302D5CFF0E0EE0FFF1FE652FD4F67
:102ED0008AE0A1E9B2E001900D928A95E1F76AE0FB
:102EE00070E081E992E00E947E058093900240911B
:102EF0000B0350E060910A0370E06A5F7C4FC701EA
:102F00000E94AD2B8D8980939C0261E070E0C70127
:102F10000E947E0580939B02C0909D02D0909E02ED
:102F2000E0909F02F090A002809178029091790247
:102F3000A0917A02B0917B02C816D906EA06FB0678
:102F4000D1F0C0927802D0927902E0927A02F092A7
:102F50007B020E94ED0D81110EC00E942005C61A51
:102F6000D70AE80AF90AC092B702D092B802E092F2
:102F7000B902F092BA028091A1020E949405809158
:102F8000A902882379F180FF0DC08091A20280FF01
:102F90002BC090914B03916090934B0360E086951A
:102FA0000E94B10F8091A90281FF09C020E04091E9
:102FB000A5026091A4028091A3020E94BB0E8091A1
:102FC000A90282FF06C08091A802882381F00E9496
:102FD0008D0E8091A90283FF03C081E080931203CC
:102FE0001092A90280E0BECE0E94A20DDBCF0E940B
:102FF0003E06EFCFCF93C82F8823B1F08CEF8C0F14
:10300000813A00F5E4EEF1E08AEE91E0DF012D91E6
:10301000C21761F08A179B07D1F76C2F82EE91E0FF
:103020000E9438050E940B12CF9108952191C2137E
:1030300003C0DF0111971C928E179F07B9F70E94FA
:103040000B12EBCF80E28C0F883068F4C77021E060
:1030500030E001C0220FCA95EAF780916A02822B04
:1030600080936A02DFCFEBE5EC0FE33040F4F0E051
:10307000E958FE4F808190E00E946805D5CFC85A7C
:10308000C73190F6EC2FF0E0EE0FFF1FE658FE4F31
:10309000808191810E945205C7CF1F93CF93DF9308
:1030A000182FD0E0C0E0893311F4C0E5D0E0812FC3
:1030B0000E94FA17209739F4812F0E94CD15DF91D5
:1030C000CF911F9108958FE99FE00197F1F700C01C
:1030D00000002197EFCF0F931F93CF93DF93C62F5D
:1030E000D42F022FFC0182818823A9F060937803FA
:1030F0000E942C059093770380937603C77081E03C
:1031000001C0880FCA95EAF70E94C315DF91CF91DD
:103110001F910F91089580917803681332C08091B8
:103120007603909177030E941105883C910548F53C
:1031300010E21D0FCD17B9F080E28C0F883040F4FB
:10314000C77081E001C0880FCA95EAF70E94BC15DC
:10315000183048F481E09D2F977001C0880F9A9530
:10316000EAF70E94C315802F0E944D18183070F6A0
:10317000D77081E001C0880FDA95EAF70E94BC158C
:10318000C5CFC77081E001C0880FCA95EAF7F6CFB6
:10319000CF93C62F811146C06091D1027091D202A7
:1031A0008091D3029091D4020E94D8098130D9F441
:1031B00080EE0E94FA17C11103C081EE0E94FA1737
:1031C0008BE20E944D18C11103C081EE0E94CD1503
:1031D00080EE0E94CD15CC2319F18EE40E944D188B
:1031E00080E0CF91089580917702811106C081E03F
:1031F0008093770283EE0E94FA170E942C05909329
:10320000760280937502C11103C081EE0E94FA1705
:103210008BE20E944D18C111E0CF81EE0E94CD15C6
:103220008BE4DCCF8130E1F66091D1027091D20263
:103230008091D3029091D4020E94D809813051F438
:103240008CEAC1118BEA0E944D1889EAC111C6CFE0
:103250008AEAC4CF8AEACC23B1F389EAF4CFA1E0A9
:10326000B0E0E5E3F9E10C948C2AEE24E394F12C30
:103270000CE912E09E012F5F3F4F4CE852E063E003
:1032800082E00E943A11C82E882339F100E080E0E4
:103290001DC0D090D902D00E2D2D30E0A9014A5F7B
:1032A0005C4F7A01E1E0F0E0EC0FFD1FE00FF11D53
:1032B0001081FA019081191BB12E1B149CF0912FE3
:1032C00017FD90E0191B111118C00F5F9091D802E3
:1032D0000917F8F281110E94DE088C2D2196E9E091
:1032E0000C94A82ABA94F70180818F5F808361E0F3
:1032F0008D2D0E94C8188C2DE0CF1F5FF7018081B3
:103300008150808360E08D2D0E94C8188C2DDBCF0A
:1033100068EE7EEF90E080E00E947D2B60E082E02E
:1033200090E00E945F2B60E083E090E00E945F2BC2
:1033300010926C0210926D0210926E0210926F0247
:1033400060E084E090E00E945F2B64E082E290E025
:103350000E945F2B60E085E090E00E945F2B60E0C0
:1033600086E090E00E945F2B6FEF87E090E00E9484
:103370005F2B40E050E0BA0188E090E00E94712BA2
:1033800060E08DE090E00E945F2B40E050E0BA01E9
:1033900088E190E00E94712B60E087E190E00E945C
:1033A0005F2B40E050E0BA018CE190E00E94712B6D
:1033B00070E060E080E290E00E947D2B40E050E011
:1033C000BA0188E190E00E94712B0E94670E83E0B1
:1033D0000E944C0EEBE4F3E080818160808386954F
:1033E0000E94F10F21E04FEF6FEF80E00E94BB0ED3
:1033F0008BE00E94F10F40E050E0BA018FE090E0D6
:103400000E94712B40E050E0BA0183E190E00E94FD
:10341000712B0895A5E0B0E0E0E1FAE10C94852A73
:103420007C01FC0183819481892B31F08081918121
:1034300089238F3F09F0E6C52596E0E10C94A12A87
:103440000E94F808182F682F89819A810E947609B6
:1034500069817A81812F0E9446078C01F701828160
:103460008823E1F0F801EF5AFD45E730F105B0F4AB
:10347000EE53F44D0C94142B8DE20E944D188CE207
:103480000E944D188FE20E944D188CE20E944D1848
:1034900080E30E944D188CE20E944D18F701828152
:1034A000882309F41DC60E3BFCE51F0709F4A9C0DB
:1034B00008F06FC00C3B3CE5130709F48BC00D3BD3
:1034C0008CE5180709F49BC0043F2CE5120709F4AA
:1034D000DDC008F0AEC5093D8CE5180709F4D2C07F
:1034E0000A3D9CE5190709F4DDC0083DECE51E071F
:1034F00009F0ABC526E241EE61EEC7010E946B18F0
:103500006CC082EE0E94FA178AE10E944D1882EE8A
:1035100007C080EE0E94FA1780E50E944D1880EEE9
:103520000E94CD15BBCF80EE0E94FA178FE4F5CF35
:1035300082EE0E94FA1781EE0E94FA1780E50E943F
:103540004D1881EE0E94CD15E2CF82EE0E94FA174F
:1035500081EE0E94FA178FE4F2CF8091EA0188236E
:1035600041F01092EA010E94A20D83E00E946012D5
:1035700095CF81E08093EA0180914B038160809335
:103580004B0360E086950E94B10F83E00E94BC125D
:1035900085CF003C9CE5190709F463C008F44DC0D1
:1035A000013CFCE51F0709F08FCF90915003892F54
:1035B0008695869586958F5F8F719770843008F019
:1035C0005EC0880F880F880F892B809350038091ED
:1035D00050031FC083E00E944C0E809160028770F0
:1035E00009F42ACFF7018281882309F425CF80913D
:1035F000D60282FF21CF82E00E9484121DCF80E09C
:10360000EACF80915003982F987F79F0885080936B
:103610005003887F91E009F490E08091500390FB83
:1036200080F9809350030E94460E80915003869546
:10363000869586950E949405D0CF80915003982F4F
:10364000969596959695933040F49F5F990F990FB4
:10365000990F8770892B809350038091500381606C
:10366000E0CF8091500380FF07C08E7F809350038E
:103670000E94460E80E0DECF0E94670EAECF909390
:103680005003A5CF27E245EE65EE37CF26E241EEA7
:1036900060EE33CF27E245EE64EE2FCF26E241EE17
:1036A00062EE2BCF28E241E0EFCF02368DE518071E
:1036B00009F4DCC4063A9DE5190709F4D7C40631BC
:1036C0003CE5130709F0DBC180916A028A7A91E038
:1036D00009F490E09093EB0169E2811165E382EED9
:1036E00091E00E9438050E940B1277CF8091D5029D
:1036F000806207303CE5130709F492C008F49FC0CC
:103700008091D50280648CC08091D5028B7F0D3072
:103710009CE5190709F484C0A0F48091D5028E7F3E
:103720000B30FCE51F0709F47BC08091D5028C604B
:103730000C302CE5120708F473C08091D5028D7F00
:103740006FC08091D5028F7E0F303CE5130709F4DE
:1037500067C008F47EC08091D5028F7D61C00E3FA6
:103760009CE5190709F47DC058F50531FCE51F07F4
:1037700009F489C098F48091D502837F03313CE538
:10378000130709F44DC008F474C00E94E912909127
:10379000D502892F97FB87F9805842C00C3F9CE5E2
:1037A000190709F448C008F058C08091D60281601A
:1037B0000B3FFCE51F0709F083C48093D60280C449
:1037C00002302DE5120709F46AC0B0F401158DE549
:1037D000180709F454C08091D602836001309DE53A
:1037E000190758F38091D602982F909591708E7F8B
:1037F000892B90FB81F9E1CF0236EDE51E0709F434
:1038000054C0063AFDE51F0709F456C003302DE504
:10381000120709F055C460E043C08091D502826070
:103820008093D5024DC48091D5028460F9CF8091F8
:10383000D5028860F5CF8091D6028260BECF80919C
:10384000D5028061EDCF0E94E9128091D502806897
:10385000E7CF8091D502877FE3CF8091D6028E7F1C
:10386000ACCF8091D6028D7FA8CF8091D5028F7B7F
:10387000D7CF0E94E9128091D5028F77D1CF809166
:10388000D6028C7F9ACF8091D50282FB992790F93E
:1038900021E0922790FB82F990FB83F9C1CF61E090
:1038A0008EE090E00E945F2B0BC49091D502892F8F
:1038B0008F7E94FF8061B4CF9091D502892F8E7F47
:1038C00090FF8160ADCF85E3E4EEF1E02AEE31E0D8
:1038D0009191891303C0DF0111971C922E173F07A6
:1038E000B9F701CF053CFCE51F0709F497C049E78C
:1038F0005FE063E87FE0063C2CE5120709F028C48E
:103900000E9438066ACE0A3C3CE5130709F495C0CC
:1039100070F4083CECE51E0709F48AC04CE65FE051
:103920006FE57FE0093CFCE51F0751F311C40B3C38
:103930002CE5120709F486C04DE85FE06FE97FE0EF
:103940000C3C3CE51307E1F203C4023D8CE518078B
:1039500009F48AC0B0F40F3CECE51E0709F47EC000
:1039600008F47AC0003D2CE5120709F47AC06EE035
:1039700089E0013D3CE5130709F0EAC30E940A1003
:103980002CCE053D8CE5180709F474C070F4033D96
:10399000ECE51E0709F46BC088E1043DFCE51F0758
:1039A00009F0D6C30E94F10F18CE063D2CE5120790
:1039B00009F463C00E353DE5130709F40ECEC8C304
:1039C00080914B0380FF20C08E7F80934B036091DA
:1039D0004B0370914C0380914D0390914E030E94D4
:1039E000A80E0E943E068091170381608093170302
:1039F0008FEF90E7E2E081509040E040E1F700C0B7
:103A000000000E94870AE9CD816080934B03869570
:103A1000C9CF45EF5FE06FEF7FE072CF4FEF5FE020
:103A200065EF7FE06DCF43E85FE069E77FE068CF57
:103A30004FE55FE06CE67FE063CF45E45FE062E581
:103A40007FE05ECF42E55FE065E47FE059CF4FE97C
:103A50005FE06DE87FE054CF81E0A4CF65E082E0D5
:103A60008DCF68E086E08ACF64E18FE087CF67E1A1
:103A700085E184CF62E289E181CF83E293CF0B3588
:103A8000FDE51F0709F451C058F401153CE5130783
:103A900099F00F3D1C4509F05BC30E9488190AC0CC
:103AA0000D359DE51907B9F108F441C0083A1D45E7
:103AB00009F04EC30E94A6150E94E9122FEF34E3CD
:103AC0008CE0215030408040E1F700C0000081E0F0
:103AD0008093E00080E28093D8001092C900EFE16B
:103AE000FEE43197F1F700C0000087E090EBDC01C5
:103AF0008093790390937A03A0937B03B0937C0324
:103B000088E19CE00FB6F894A895809360000FBE02
:103B100090936000FFCF8091D60282FB882780F9C6
:103B200091E089270E94A01213C381E0FBCF80E0BF
:103B3000F9CFC8010E944109D82E19C3212F2F7037
:103B4000C22E107F19F0C29490EFC922DD20B9F087
:103B5000CC2069F080E2800F883010F0811009C01D
:103B600080916A02C82AC0926A020E940B12802FBA
:103B70004AC080916902C82AC0926902F6CF802F9C
:103B80000E94CD15CC2009F440C0005E083010F032
:103B9000811004C08C2D0E94E70806C0C09480915B
:103BA0006902C822C09269020E940B122EC0312FF6
:103BB0003F70C32E107F103219F0C29480EFC822DC
:103BC000882089F081E0881609F479C0DD2009F4A5
:103BD00083C0992009F479C0F701858180FFC7CFA0
:103BE0008F70858372C02091D60222FD45C0DD20F2
:103BF000E9F1CC2039F080916A02C82AC0926A02A9
:103C00000E940B1280E00E94FA17EA2DE850FF0B89
:103C1000349720F40E94100E0E94CE09BB20A9F018
:103C20008091600280FD11C0F70112828595859513
:103C300085950E94BC12C7010E940A1A80916002F9
:103C40008595859585950E94601285E0F701DE01D6
:103C5000119601900D928A95E1F709811A81C801A8
:103C60000E944109B8010E944607E6CB80E00E940D
:103C7000CD15CC2051F28ECFDD20A1F090916B02BA
:103C80008C2D892B911003C00E94C315BECFE1E09B
:103C90009E12FACF22FFB9CF981709F4B6CF8093BE
:103CA0006B02B3CF911006C00E94E1088C2D0E94D8
:103CB000BC15ABCFF1E09F1609F4A7CFF5CFDD20FF
:103CC00031F025E0291508F4A0CF8C2DDDCF34E0AC
:103CD000391508F49ACFEACF992041F3F9E38F120E
:103CE0008AC12FEF37EE83E0215030408040E1F76A
:103CF00000C0000080C1812F86958695837061F099
:103D0000813009F082CFC8019370D11002C090E0D9
:103D100080E00E94520579CFC8019370D11002C093
:103D200090E080E00E94680570CF812F837009F0D9
:103D300066C0D1106ACF802F829586958770880FD4
:103D4000880F602F6F70462E512C712C612C082E1D
:103D500004C0440C551C661C771C0A94D2F740E042
:103D600050E0BA0104FF0FC04FE050E060E070E0A7
:103D700004C0440F551F661F771F8A95D2F74095E0
:103D8000509560957095812F8695869583708230C9
:103D900019F1D8F400916C0210916D0220916E021D
:103DA00030916F02813069F04429552966297729BD
:103DB000CB01BA0160237123822393230E94DE1278
:103DC00024CF402A512A622A732ACB01BA016429DE
:103DD000752986299729F2CF4429552966297729FB
:103DE00000916C0210916D0220916E0230916F0271
:103DF000CB01BA016027712782279327DFCF8695F1
:103E0000DD2011F0812F8170882309F4FECE802FF0
:103E1000829586958770880F880F602F6F70462E69
:103E2000512C712C612C082E04C0440C551C661CAE
:103E3000771C0A94D2F740E050E0BA0104FF0FC0AB
:103E40004FE050E060E070E004C0440F551F661F73
:103E5000771F8A95D2F74095509560957095812F80
:103E6000869586958370823019F1D8F40091D1023D
:103E70001091D2022091D3023091D402813069F0A6
:103E80004429552966297729CB01BA01602371237A
:103E9000822393230E945512B8CE402A512A622AC7
:103EA000732ACB01BA016429752986299729F2CF93
:103EB00044295529662977290091D1021091D2020F
:103EC0002091D3023091D402CB01BA01602771272F
:103ED00082279327DFCF1F70DD2029F0812F0E94DA
:103EE000BC12802FD1CE802F0E94BC15812F0E9442
:103EF00060128BCE802F92EF891609F43FC098157F
:103F000070F0E0EF8E16D1F0F1EF8F1691F0DD201A
:103F100009F46CC091102BCE812F8F7133C023EF29
:103F2000821699F134EF8312F2CF8091D60282FD8E
:103F30003FC0812F8F71DD20D1F224C0DD20C9F078
:103F400084E0891508F461CE1F7161E070E080E0C3
:103F500090E004C0660F771F881F991F1A95D2F74B
:103F60000091D1021091D2022091D3023091D4025B
:103F7000ADCF95E0991508F448CEE6CF812F8F712B
:103F8000D110B5CF0E94BC1240CE60E070E0CB01F2
:103F9000DD2009F47FCF1F7161E070E080E090E0E8
:103FA00004C0660F771F881F991F1A95D2F772CF2A
:103FB000DD2089F01F71812F0E94BC128091D602F2
:103FC00082FF07C0E8E01E9FC00111248360809338
:103FD0006002812FD7CF81E00E948412F1E0F915B1
:103FE00008F013CE82E00E9484120FCE992039F09F
:103FF000893309F476CE802F0E94CD1506CE812F0D
:104000008F7175CF85E0DE01119601900D928A9532
:10401000E1F7F701228189819A81211111CA0E9459
:104020004109182F15CA8091EB0181114CCC89E20E
:104030004BCC063FFCE51F0709F430CB08F42ACB34
:10404000073F3CE5130709F4D7C01092780304300A
:104050002DE5120708F029CB0B3F3CE5130730F4A0
:10406000C80182509C45449708F029CB0E947F0EDE
:104070009093D6028093D5020131ECE51E0709F436
:10408000F4CB08F06CCB09302CE5120709F4DBCB3C
:1040900008F03ACB05308CE5180709F4C8CB08F0D6
:1040A00025CB0330ECE51E0709F4B7CB08F0BBCBFA
:1040B0008091D502816002302CE5120709F4B0CB63
:1040C0006091D5021091D60284E090E00E945F2BAF
:1040D000612F82E290E00E945F2B0E94E9127DCA6C
:1040E000043F8CE5180709F4D1CA08F079C0093DEE
:1040F000ECE51E0709F4C6CA0A3DFCE51F0709F4F2
:10410000D1CA083D2CE5120709F4F4C90631FCE5D3
:104110001F0709F488CF80916A0282720D3C9CE5EA
:10412000190709F494CC08F010CC073CFCE51F07F4
:1041300009F479CC08F0E7CB043C3CE5130709F41B
:1041400068CC08F0CFCB033CECE51E0709F438CC73
:10415000F701828100811181882309F4EACCC8012A
:104160000E94F808D82E682FC8010E947609B8016D
:104170008D2D0E9446070E9461078C01882EF70151
:10418000D280958092943FE0932280916002877064
:10419000C1F0BD2CDD20B1F0812F807F803421F073
:1041A00080E2800F883068F08091D60282FF09C0DB
:1041B00082E00E948412809160028770BB24B394D5
:1041C0008111B12CA12EA2942FE0A222FBE0FA15BE
:1041D00008F41BCDEA2DF0E0E753F44D0C94142BBA
:1041E000063F3CE5130709F459CA08F453CA073FD0
:1041F0009CE5190709F08ACF27E245EE66EE7DC9F6
:104200001F93CF93DF9380912D02807F09F049C0E7
:1042100080912A02882309F444C080915F02D091E2
:104220002E026091280270912902A0912B02B09178
:104230002C02C62FC72316E0D81799F190E01097EB
:1042400011F0CF3F19F401968770F6CF189F9001B7
:10425000199F300D1124F901E15DFD4F4181471394
:10426000F2CF40814613EFCF42814111ECCF438121
:1042700054814A1B5B0B483C510528F780912D0265
:104280008F70806180932D02F901EC5CFD4F80817D
:104290008F708061808388E292E00E940A1A0E94F7
:1042A000EE08DF91CF911F910895A1E1B0E0EBE519
:1042B000F1E20C948B2A8C0185E0F801DE011D9659
:1042C00001900D928A95E1F7F801E28088E2A82E2C
:1042D00082E0B82E60912B0270912C02611571055D
:1042E00009F426C19091280240912902892F842344
:1042F0008F3F09F41DC120813181C380D480F090AB
:104300002A02F601E61BF70BFF2009F4DCC08091BE
:104310002D02582F507FE83CF10508F09FC0511145
:104320006BC0FE2C431314C0921312C0E11010C0D6
:104330008F70806180932D02C5010E940A1A8091BE
:104340002D02F80185838F2D6196EAE00C94A72A4F
:10435000C114D10429F0822F83238F3F09F003C1B8
:1043600080E0F82FF170DF2E80FF3CC080915F026B
:1043700040912E0256E0841315C02D873E878D850F
:104380009E850E943409292F22952F702230F0F04B
:10439000243018F59F70F1F0F8019581907FD1F4E9
:1043A000D12C1EC090E0589FF001599FF00D1124B0
:1043B000E15DFD4F6181361306C06081261303C0A5
:1043C0006281E6120FC001968770D5CF9F7011F001
:1043D000882331F3805E883018F3C8010E940A1ADE
:1043E000FD2CB1CFEE2009F4AECF80912D0281607B
:1043F00080932D02F12CA7CF431306C0921304C063
:10440000F801EE2009F479C0C8010E94AE098823A2
:1044100009F1EE20F9F080912D02803270F02091A8
:1044200028023091290238872F831986DB86CA86B5
:104430008C87CE0107960E940A1A86E0F801A8E24E
:10444000B2E001900D928A95E1F70E940021FF24CD
:10445000F39479CFC8010E940A1AF9CF51110AC00A
:1044600088E292E00E940A1A86E0F50111928A958C
:10447000E9F7C0CF43130FC092130DC0E1100BC07A
:10448000F8018583C8010E940A1A86E0F50111929D
:104490008A95E9F758CFC8010E94AE098823D1F266
:1044A000EE20C1F280912D02803238F22091280254
:1044B000309129023A8329831B82DD82CC828E834C
:1044C000CE010196B8CFE83CF105F8F6FE2CEE20BF
:1044D00009F243131FC092131DC080912D0280FD6D
:1044E00010C0982F907F69F0F8018583903F31F0DC
:1044F000982F907F905F8F70892B8583C8010E94D1
:104500000A1A86E0F801A8E2B2E001900D928A95BD
:10451000E1F719CFC8010E94AE0981118ECF8091B9
:104520002D02816080932D02C8010E940A1A0BCFD0
:10453000EE2009F48FCFC8010E94AE09F82E88231F
:1045400009F488CF86E0F801A8E2B2E001900D926C
:104550008A95E1F780912802909129020E943409FE
:104560000E940021F0CE81E08E25FBCEA7E1B0E0D5
:10457000ECEBF2E20C94922A4B8B5C8B6D8B7E8B76
:104580008F8B6111109269021A8A198A85E0FE01E7
:104590007396DE011D9601900D928A95E1F786E0F3
:1045A000FE013D96DE01179601900D928A95E1F786
:1045B000CE0107960E945521882359F016E080917C
:1045C0005F0290912E02891343C06796E3E00C943A
:1045D000AE2A86E0FE013796DE01119601900D921B
:1045E0008A95E1F78A859B85892B41F38F81988590
:1045F00089238F3F19F320912E0230E0C9010196E3
:104600008770992740915F024817190671F40E943C
:10461000E91210922E0210925F0286E0E8E2F2E0C8
:10462000DF011D928A95E9F7C9CF96E0929FD001EC
:10463000939FB00D1124A15DBD4FFE0131960190F5
:104640000D929A95E1F780932E020E94EE08B6CF64
:10465000819FC0011124815D9D4F0E9455218823B7
:1046600009F4B3CF80915F0290E00196877099279B
:1046700080935F02A4CF90E080E00E94592B883E97
:104680009E4F51F00E948819809150038470896177
:10469000809350030E94460E86E090E00E944B2BD0
:1046A00080935003803220F087708861809350039C
:1046B00090915003892F817090FF04C0892F8695B7
:1046C000869586950E94940508951F920F920FB6C5
:1046D0000F9211242F933F934F935F936F937F9388
:1046E0008F939F93AF93BF93CF93DF93EF93FF93FA
:1046F000D091E900DF708091EC00C82FC17080FD7F
:10470000C0E81092E9008091F000877F8093F0006C
:1047100078940E94F5121092E9008091F000886070
:104720008093F000CD2BCF70C093E900FF91EF9103
:10473000DF91CF91BF91AF919F918F917F916F91B9
:104740005F914F913F912F910F900FBE0F901F904F
:1047500018951F920F920FB60F9211242F933F932B
:104760004F935F936F937F938F939F93AF93BF9379
:10477000EF93FF938091E10082FF09C08091E200F6
:1047800082FF05C08091E1008B7F8093E1008091E2
:10479000DA0080FF24C08091D80080FF20C0809183
:1047A000DA008E7F8093DA008091D90080FF9DC06F
:1047B00080E189BD82E189BD09B400FEFDCF81E0C1
:1047C00080936C0380915F03811109C00E9487036D
:1047D0000E9452048091E20084608093E200809104
:1047E000E10080FF17C08091E20080FF13C080913C
:1047F000E2008E7F8093E2008091E20080618093EE
:10480000E2008091D80080628093D80019BC85E0D6
:1048100080936C038091E10084FF2BC08091E200C3
:1048200084FF27C080E189BD82E189BD89B5982FC9
:10483000917080FFFBCF8091D8008F7D8093D8004E
:104840008091E1008F7E8093E1008091E2008F7E75
:104850008093E2008091E20081608093E200809189
:104860006D03882309F447C084E080936C03809132
:104870006C038091E10083FF27C08091E20083FFF9
:1048800023C08091E100877F8093E10082E08093E4
:104890006C0310926D038091E1008E7F8093E100A4
:1048A0008091E2008E7F8093E2008091E20080613F
:1048B0008093E20042E060E080E00E94200480916A
:1048C000F00088608093F000FF91EF91BF91AF916D
:1048D0009F918F917F916F915F914F913F912F9118
:1048E0000F900FBE0F901F90189519BC10926C037B
:1048F00010925F0374CF8091E30087FD93E0909363
:104900006C03B5CF78941F921FB61F9211248F931A
:104910009F93AF93BF938091580390915903A091B7
:104920005A03B0915B030196A11DB11D80935803FA
:1049300090935903A0935A03B0935B03BF91AF9137
:104940009F918F911F901FBE1F9018951F921FB6A9
:104950001F9211248F939F93AF93BF93809157031E
:10496000811113C08091580390915903A0915A036B
:10497000B0915B034196A11DB11D809358039093A4
:104980005903A0935A03B0935B03BF91AF919F91DA
:104990008F911F901FBE1F901895CDB7DEB72E9731
:1049A0000FB6F894DEBF0FBECDBF85B7806885BF58
:1049B00085B7806885BF84B7877F84BF0FB6F894BA
:1049C000A8958091600088618093600010926000DB
:1049D0000FBE80E890E00FB6F8948093610090934A
:1049E00061000FBE8AEE96E09093E1018093E001B2
:1049F0000E9487030E9452048091E20084608093A9
:104A0000E200789480916C038823A1F01091E90072
:104A10001F709091EC00892F817090FD80E8182B19
:104A20001092E9008091E80083FD0E94F5121F704A
:104A30001093E90082E084BD93E095BD9AEF97BDA5
:104A400080936E001092B7021092B8021092B902D1
:104A50001092BA0287988F988FB1881F8827881F75
:104A60008093460180914601882309F438C1109251
:104A7000630188E0809364010E94ED0D81110E9422
:104A800021298091460181112CC085E0E9E6F1E001
:104A9000DE011A9601900D928A95E1F78A8580933E
:104AA00041018B85809342018C85809343018D85E4
:104AB000809344018E858093450189E0EEE6F1E024
:104AC000DE01119601900D928A95E1F7FE01319673
:104AD000A8E3B1E0CE010A9621912D93E817F907DA
:104AE000D9F78091460195E0811190E09093D00232
:104AF00085E0891B8093CF0201E411E0F6E4EF2EFC
:104B0000F1E0FF2ED8018D918D018F3F11F00E94B1
:104B1000EC06E016F106B1F708E311E0F801819127
:104B20008F018F3F11F00E94EC06F1E001341F0766
:104B3000A9F784E1EAEDF2E0DF01282F1D922A9522
:104B4000E9F7EBEBF2E0DF011D928A95E9F7269A8F
:104B500090E080E00E94592B883E9E4F11F00E9409
:104B6000881982E090E00E944B2B8093EE020E9415
:104B70007F0E9093D6028093D50283E090E00E944E
:104B80004B2B682F70E090E080E00E94DE12259AA7
:104B90002D9882E88093800089E1809381008FEFD7
:104BA0009FEF90938700809386000E943B230E9492
:104BB0003B238091D70281113BC090E080E00E94AE
:104BC000592B883E9E4F21F00E9488190E9419108F
:104BD00088E090E00E94532B60934B0370934C034A
:104BE00080934D0390934E038091170383608093CD
:104BF00017036E7F71F40E94191088E090E00E9404
:104C0000532B60934B0370934C0380934D0390930D
:104C10004E030E9445060E943E0680914B0380FF92
:104C200004C060E086950E94B10F81E08093D702B6
:104C30009091460181E0982790930A03F82FF91B81
:104C4000F093D9029091460180930B039091460115
:104C50008093D80280914601811106C086E9809335
:104C6000540184E98093530120915401E22FE2958D
:104C7000EF70F0E061A12F7081E090E0AC0101C025
:104C8000440F2A95EAF7342F3095362331A322A119
:104C9000242B22A320915301E22FE295EF70F0E044
:104CA00031A12F7001C0880F2A95EAF7982F9095AF
:104CB000932391A392A1892B82A38FE891E001977E
:104CC000F1F700C0000010910B036CE073E044E5C5
:104CD00051E083E5E82E81E0F82EFB012CC088E04E
:104CE00080936301C7CEDA012D91AD01822F8295A9
:104CF0008F7090E0DC0190968C9190E02F7002C054
:104D0000959587952A95E2F78170D7019D917D0150
:104D1000292F22952F7030E0D90190962C9130E008
:104D20009F7002C0359527959A95E2F790E020FD97
:104D300092E0892B81938E2F861B8117A0F20E940F
:104D4000ED0D811102C00E94242987E491E0909327
:104D500054038093530358E1652E712C60E4562E62
:104D60007EEEC72E72E0D72EE4E0AE2EB12C8091FD
:104D70006C0300E112E1853009F400C10E940216C3
:104D800081110E942005EAEDF2E0AFEEB2E010E002
:104D900000E0302E819091908D919D91881599051C
:104DA00009F400C188259925412CEE24E394F12CC7
:104DB000970128233923232B09F4EEC00E94ED0D1F
:104DC0008823A9F049823A828E209F2081E0892899
:104DD00009F480E08B830E942C058160782F9D83ED
:104DE0008C8349815A816B818D810E94B622000F8C
:104DF000111FF801E151FD4F80819181E826F926CC
:104E0000F182E0820E94ED0D80911603882309F45F
:104E100064C080911503E0914B03E695E81BE09395
:104E20001103823009F0D5C0F0E0E657FC4FE49161
:104E30000E2F10E0FEE8EF2EFDE0FF2E8091120312
:104E4000882361F0109212030E943B0E909310038E
:104E500080930F0310921403109213030E943B0ED1
:104E6000E0910F03F09110039C012E1B3F0B2F3F8D
:104E70003F4798F5209105032223B1F010920503D6
:104E80002091030330910403821B930B8F3F9F47B4
:104E900058F4205D3A483093040320930303809133
:104EA0001703886080931703809013039090140376
:104EB000E00FF11FF0931003E0930F038FE093E0F6
:104EC000F70109958091130390911403892B29F41C
:104ED000892819F081E080930503E12C912C8091C1
:104EE0000B03E81608F4CFC091100E94DE080E9460
:104EF000100E90910E03891709F439CF80930E0399
:104F00000E94CE0934CF80916C03843039F180E067
:104F10000E94940580E00E94CE09109257030FB6BC
:104F2000F894A895609260000FBE5092600083B71D
:104F3000817F846083BF83B7816083BF78948895C5
:104F400083B78E7F83BF0FB6F894A89580916000D9
:104F5000886180936000109260000FBE80916B03A7
:104F6000882361F00E940216EAEDF2E081919191AE
:104F7000892B09F0F8C0CE16DF06C1F780916C03CB
:104F8000853009F4C0CF0E94E9120E943B230E94A1
:104F9000100E0E94CE09F2CE4394EE0CFF1C29E0C5
:104FA000421206CF0F5F1F4F0A30110509F0F1CEF4
:104FB0008FEF8A878B871C860E942C058160782F53
:104FC0009E878D874A855B856C858E850E94B6227B
:104FD00019CF863059F4F0E0E957FC4FE4910E2FD9
:104FE00010E0EEE7EE2EEDE0FE2E28CF893061F4E2
:104FF000E695F0E0EC57FC4FE4910E2F10E077EDD2
:10500000E72E7CE0F72E1ACF8F3061F4E695F0E0C2
:10501000EF57FC4FE4910E2F10E061E5E62E6CE0B7
:10502000F62E0CCF853159F4F0E0E258FC4FE491B4
:105030000E2F10E05CECE52E5BE0F52EFFCE08E2D3
:1050400010E02AE4E22E2BE0F22E883109F4F6CEAD
:10505000833249F4ECE7F3E0059114914DE2E42E3C
:105060004DE0F42EEBCE04EF11E03DE0E32E3BE00B
:10507000F32E843209F4E2CE00ED17E09CE0E92E35
:1050800095E0F92EDBCE0E2D10E0F801EC5AFE4F24
:105090008081E82FE295EF70F0E0E0A1F0E08F7002
:1050A00002C0F595E7958A95E2F7E170D801AD5A0F
:1050B000BE4F2C91A22FA295AF70B0E090968C912C
:1050C00090E02F7002C0959587952A95E2F780FDB4
:1050D00048C080E08E2BD801A45FBC4FEC919E2F7E
:1050E00093708917E1F1EE0FEE0FE82BEC93F0903F
:1050F0000A03FE0CEF70F0E0E655FE4F085F1C4F10
:105100008081D8019C91890F8C9320E0843064F0D9
:10511000EF2DF0E0EA5FFC4F80818F5F808361E0DC
:105120008F2D0E94C81821E0F80180818D3F64F422
:10513000EF2DF0E0EA5FFC4F80818150808360E0DA
:105140008F2D0E94C81821E0D8018C91082E000CE8
:10515000990BB5010E94DE2AF8018083922AE3941C
:10516000BECE82E0B7CF09BD19BD09B400FEFDCFA8
:105170008091D8008F7D8093D8008091E00082607C
:105180008093E0008091E00081FDFCCF0E94E91255
:10519000F5CE8EE1489B02C08150E1F7489BFECFDF
:1051A0000895589880E28A95F1F7589A0895FC017D
:1051B0003BE03A95F1F798E020E080E031E040E113
:1051C0004A95F1F7880F489B02C08160232742E08F
:1051D0004A95F1F7000040E14A95F1F7915079F7CF
:1051E00090E19A95F1F799B132E03A95F1F7000024
:1051F00040E14A95F1F7917092272081920F9083B8
:105200000895A1E0B0E0E7E0F9E20C948F2A19825A
:105210008C017C01E60EF11C0E151F0541F481E0A6
:105220009981911180E02196E6E00C94AB2A0E94CE
:10523000C928CE0101960E94D728F80181938F01D9
:10524000EBCF509A589A08955098589AE89AE9E600
:10525000F0E080818C7F808308956150770B91E02E
:1052600001C0990F6A95EAF720E031E0911108C07A
:10527000222391F0589A80E28A95F1F75898089580
:10528000492F482339F0589A232740E24A95F1F7ED
:105290009695ECCF5898F9CF5898EDCFFF920F9391
:1052A0001F93CF93DF93EC018C01060F111DC017E4
:1052B000D10729F4CDB7DEB7E5E00C94AC2AF9901C
:1052C0000E94D12868E08F2D0E942D29F0CF1F92D7
:1052D0000F920FB60F9211240F931F932F933F93AA
:1052E0004F935F936F937F938F939F93AF93BF93EE
:1052F000EF93FF93CF93DF930F92CDB7DEB7198271
:105300000E94C928CE0101960E94D728082F069531
:1053100006950695282F22952570902F9570290FB8
:10532000922F937026952695920F982797708981D2
:10533000982B09F05CC0083008F059C080E18A95CC
:10534000F1F7589A509A82E08A95F1F700C0589880
:1053500088E0089F80011124D801A050BF4F169605
:10536000ED91FC9117973097A9F06091A801709189
:10537000A90114962D913C911597260F371F119670
:105380008D919C911297680F791F13964C911397EA
:105390008C910995F801E050FF4F6381662351F02D
:1053A0002091A8013091A90184819581820F931FDA
:1053B0000E944E290E94D12880E18A95F1F75898E1
:1053C0005098589A80E18A95F1F7F801E050FF4F24
:1053D0006081662351F02091A8013091A90181815B
:1053E0009281820F931F0E9401290E94C9280F9069
:1053F000DF91CF91FF91EF91BF91AF919F918F91ED
:105400007F916F915F914F913F912F911F910F91DC
:105410000F900FBE0F901F9018950F931F93CF936F
:10542000DF93EC0108970CF04CC0F894509A589810
:1054300085E08A95F1F700009C2F969595708C2F4A
:105440008570980F892F83709695969523E0CC0FE1
:10545000DD1F2A95E1F7980F8E01092B0E94D128B4
:1054600000C068E0802F0E942D2980E18A95F1F725
:105470005098589A489B1EC087E090E048991CC0FD
:10548000FE01E050FF4F63816623F9F02091A801EF
:105490003091A90184819581820F931F0E94012977
:1054A000811113C0509A589A7894DF91CF911F912F
:1054B0000F91089500C0DECF019729F4509A589AB1
:1054C000789480E0F2CF00C0D9CF0E94C92880E252
:1054D0008A95F1F75898509A80E18A95F1F7C05073
:1054E000DF4F6881662351F02091A8013091A90116
:1054F00089819A81820F931F0E944E290E94D12890
:10550000789481E0D2CF2F923F924F925F926F9228
:105510007F928F929F92AF92BF92CF92DF92EF9243
:10552000FF920F931F93CF93DF93CDB7DEB7CA1BC4
:10553000DB0B0FB6F894DEBF0FBECDBF09942A88EF
:10554000398848885F846E847D848C849B84AA8497
:10555000B984C884DF80EE80FD800C811B81AA8124
:10556000B981CE0FD11D0FB6F894DEBF0FBECDBFEF
:10557000ED010895DB018F939F930E94382BBF911B
:10558000AF91A29F800D911DA39F900DB29F900D92
:1055900011240895AA1BBB1B51E107C0AA1FBB1F02
:1055A000A617B70710F0A61BB70B881F991F5A95AF
:1055B000A9F780959095BC01CD01089597FB072E22
:1055C00016F4009407D077FD09D00E94CA2A07FC80
:1055D00005D03EF4909581959F4F08957095619503
:1055E0007F4F0895A1E21A2EAA1BBB1BFD010DC01F
:1055F000AA1FBB1FEE1FFF1FA217B307E407F50783
:1056000020F0A21BB30BE40BF50B661F771F881F5E
:10561000991F1A9469F760957095809590959B01F4
:10562000AC01BD01CF010895EE0FFF1F0590F4916D
:10563000E02D09940E94222B332312F48A1B9B0B2A
:105640000C94332BA29FB001B39FC001A39F700D98
:10565000811D1124911DB29F700D811D1124911D7A
:1056600008950E94222BB7FF0895821B930B089583
:105670000E94222BA59F900DB49F900DA49F800D9A
:10568000911D11240895B7FF0C94382B0E94382BDC
:10569000821B930B0895F999FECF92BD81BDF89AB4
:1056A000992780B50895A6E1B0E044E050E00C945D
:1056B000852BA8E1B0E042E050E00C94852B262F2A
:1056C000F999FECF92BD81BDF89A019700B40216F8
:1056D00039F01FBA20BD0FB6F894FA9AF99A0FBEA6
:1056E00008950396272F0E94602B0E945F2B252F81
:1056F0000E94602B242F0C94602B0196272F0E9470
:10570000602B0C945F2BDC01CB01FC01F999FECFDF
:1057100006C0F2BDE1BDF89A319600B40D92415039
:105720005040B8F70895FC014150504030F00190CE
:105730000616D1F73197CF01089588279927089544
:10574000FB01DC0104C08D910190801921F44150CE
:105750005040C8F7881B990B0895FB01DC0102C07B
:1057600001900D9241505040D8F70895F894FFCF22
:10577000D413FC139415FC1394152F145014941582
:105780004D155A15981AA51A891A931A811A3C1A96
:10579000AD1A9E1D9E1DD71DD71D7B1E051E051E05
:0A57A000051E951E6B1F7A1F7A1F6D
:1057AA0000000001000000000000000A01000000E3
:1057BA00000000010B000000000000010C000000C6
:1057CA00040D0000000000000111000000000000AC
:1057DA000812000000000000F4F1F03733929395AC
:1057EA00943132673497010E055A0A0D05550A504D
:1057FA000A0B05F6F501191A1B1C1D1E1F20212272
:10580A000102010010001010013332363497F1F012
:10581A00F4F5F695679337818283E200E900EA009E
:10582A00B500B600B700CD008301CC008A01920111
:10583A0094012102230224022502260227022A02B7
:10584A00B300B4006F007000900200FF0100010075
:10585A0000FFFF0000010001FF0000010202020236
:10586A000606060909090909090F0F0F0F0F0F1577
:10587A00151518191919191919191919192324009B
:00000001FF
